:020000040800F2
:1000000000000220B93E0008B9310008BB310008E9
:10001000BD310008BF310008C131000800000000F8
:10002000000000000000000000000000E11F0008C8
:10003000C33100080000000081200008C53100081D
:10004000093F0008093F0008093F0008093F000870
:10005000093F0008093F0008093F0008093F000860
:10006000093F0008093F0008093F0008093F000850
:10007000093F0008093F0008093F0008093F000840
:10008000093F0008093F0008093F0008093F000830
:10009000DD310008093F0008093F0008093F00085A
:1000A000093F0008093F0008093F0008093F000810
:1000B000093F0008093F0008093F0008093F000800
:1000C000093F0008093F0008093F0008093F0008F0
:1000D000093F0008093F0008093F0008093F0008E0
:1000E000093F0008093F0008093F0008093F0008D0
:1000F000093F0008093F0008093F0008093F0008C0
:10010000093F0008093F0008093F0008093F0008AF
:10011000093F0008093F0008093F0008093F00089F
:10012000093F0008093F0008093F0008093F00088F
:10013000093F0008093F0008093F0008093F00087F
:10014000ED310008093F0008093F0008093F000899
:10015000093F0008093F0008093F0008093F00085F
:10016000093F0008093F0008093F0008093F00084F
:10017000093F0008093F0008093F0008000000008F
:08018000093F0008093F0008D7
:1001900010B5054C237833B9044B13B10448AFF3C1
:1001A00000800123237010BD3C04002000000000EB
:1001B000A84D000808B5034B1BB103490348AFF332
:1001C000008008BD0000000040040020A84D000889
:1001D00053B94AB9002908BF00281CBF4FF0FF31AE
:1001E0004FF0FF3000F074B9ADF1080C6DE904CEAA
:1001F00000F006F8DDF804E0DDE9022304B0704702
:100200002DE9F047089D04468E46002B4DD18A42C9
:10021000944669D9B2FA82F252B101FA02F3C2F1FC
:10022000200120FA01F10CFA02FC41EA030E94408D
:100230004FEA1C48210CBEFBF8F61FFA8CF708FBAE
:1002400016E341EA034306FB07F199420AD91CEB86
:10025000030306F1FF3080F01F81994240F21C81B8
:10026000023E63445B1AA4B2B3FBF8F008FB103300
:1002700044EA034400FB07F7A7420AD91CEB040435
:1002800000F1FF3380F00A81A74240F20781644405
:10029000023840EA0640E41B00261DB1D44000238A
:1002A000C5E900433146BDE8F0878B4209D9002DEE
:1002B00000F0EF800026C5E9000130463146BDE878
:1002C000F087B3FA83F6002E4AD18B4202D38242E2
:1002D00000F2F980841A61EB030301209E46002D91
:1002E000E0D0C5E9004EDDE702B9FFDEB2FA82F2E6
:1002F000002A40F09280A1EB0C014FEA1C471FFA44
:100300008CFE0126200CB1FBF7F307FB131140EA2A
:1003100001410EFB03F0884208D91CEB010103F1F7
:10032000FF3802D2884200F2CB804346091AA4B2B9
:10033000B1FBF7F007FB101144EA01440EFB00FE8D
:10034000A64508D91CEB040400F1FF3102D2A645F2
:1003500000F2BB800846A4EB0E0440EA03409CE791
:10036000C6F12007B34022FA07FC4CEA030C20FA3E
:1003700007F401FA06F31C43F9404FEA1C4900FA5E
:1003800006F3B1FBF9F8200C1FFA8CFE09FB1811DB
:1003900040EA014108FB0EF0884202FA06F20BD94E
:1003A0001CEB010108F1FF3A80F08880884240F29E
:1003B0008580A8F102086144091AA4B2B1FBF9F0E2
:1003C00009FB101144EA014100FB0EFE8E4508D9DD
:1003D0001CEB010100F1FF346CD28E456AD9023862
:1003E000614440EA0840A0FB0294A1EB0E01A14247
:1003F000C846A64656D353D05DB1B3EB080261EBB5
:100400000E0101FA07F722FA06F3F1401F43C5E98E
:10041000007100263146BDE8F087C2F12003D840C4
:100420000CFA02FC21FA03F3914001434FEA1C4706
:100430001FFA8CFEB3FBF7F007FB10360B0C43EAF8
:10044000064300FB0EF69E4204FA02F408D91CEBA8
:10045000030300F1FF382FD29E422DD902386344A6
:100460009B1B89B2B3FBF7F607FB163341EA034146
:1004700006FB0EF38B4208D91CEB010106F1FF3895
:1004800016D28B4214D9023E6144C91A46EA00468C
:1004900038E72E46284605E70646E3E61846F8E61E
:1004A0004B45A9D2B9EB020864EB0C0E0138A3E767
:1004B0004646EAE7204694E74046D1E7D0467BE748
:1004C000023B614432E7304609E76444023842E7C0
:1004D000704700BF70B52DED028B264B186801F0F8
:1004E000D8FC002628E0DFED242A9FED248A4FF473
:1004F000916404FB06F505F1D800214C204411223B
:100500000121F0EE624A9FED1F4ADFED1F3A9FED99
:100510001F3AB2EE0E2AF2EE001AB7EE001AF0EE13
:10052000480A9FED1B0A043003F07DF82C4418EEB6
:10053000103AC4F82E300136032ED4DD9FED0E1A8A
:10054000DFED140A47220521DFED134AB0EE414AE0
:10055000DFED0D3AB0EE603AF0EE412AB0EE412AFE
:10056000F1EE041A9FED090A0C4803F05CF8BDECAB
:10057000028B70BDEC550020000000000000FA4521
:10058000580400206F12833A0000C8420000FA436A
:1005900000007A46000096430AD7233C78160020D4
:1005A000254B1A785A70254A137C92F91020002A9C
:1005B00020DB03F09003902B21D0204B5B7A022BA1
:1005C00029D0032B23D0012B1DD01C4A127A022ADA
:1005D00025D01B4A127852B1174A1278032A03D049
:1005E000184A1278042A02D1134A05211170022BED
:1005F0001DD0704712490A7801320A70D9E7104BB2
:1006000000221A70D9E70C4A03211170DDE70A4A6B
:1006100000211170D9E7084A00211170D5E7064A78
:100620001278032AD5D1044A05211170D1E7024B73
:1006300000221A70DDE700BF24170020F017002009
:100640000418002058170020254BB3F9002007EEAE
:10065000102AB8EEC77ADFED236AC7EE267A9FED3F
:10066000227A67EE877A214991ED017AB6EE006A27
:1006700027EE067A77EE877A1D4AC2ED017AB3F942
:10068000020007EE100AB8EEC77ADFED1A7A27EEFD
:10069000277AC7EE267A9FED187A67EE877A91ED72
:1006A000027A77EE877AC2ED027AB3F9041007EE88
:1006B000101AB8EEC77AC7EE267A9FED107A27EEA9
:1006C000877AB3F90A3007EE903AF8EEE77AF1EE5E
:1006D000046A67EEA67A77EE277AC2ED037A70474E
:1006E000F01700200000254400803B45D41700206F
:1006F00024170020CDCC4C3F0080BB450000964322
:1007000082B08446DFED5F7AB4EEE70AF1EE10FACC
:1007100009D9DFED5D7AB4EEE70AF1EE10FA04DBF9
:100720009FED590A01E09FED570ADFED587AF4EE8C
:10073000E70AF1EE10FA09D9DFED557AF4EEE70A8F
:10074000F1EE10FA04DBDFED520A01E0DFED4F0AB3
:10075000DFED507AB4EEE71AF1EE10FA09D9DFEDC9
:100760004E7AB4EEE71AF1EE10FA04DB9FED4A1A66
:1007700001E09FED481A70EE607A9FED487A21EE15
:10078000071A77EE817A9FED467A67EE877AFDEE5B
:10079000E77A17EE903AADF8003070EE207A71EEFD
:1007A000277A67EE877AFDEEE77A17EE903AADF892
:1007B000023070EEC07A77EE817A67EE877AFDEECE
:1007C000E77A17EE903AADF80430B1EE400A30EE19
:1007D000600A31EE001A21EE071ABDEEC11A11EEC1
:1007E000103AADF8063000239FED2E7A07E0514213
:1007F00007EE901AF8EEE77A0EE00133DBB2032B36
:1008000018D802AA02EB430232F9082C002AEEDDC6
:1008100007EE902AF8EEE77AB4EEE77AF1EE10FAF6
:10082000EBD5002AB8BF524292B207EE902AB8EE3A
:10083000E77AE2E7DFED1C7AB4EEE77AF1EE10FA40
:1008400018DDC7EE876A0023032B13D802AA02EB38
:10085000430232F9081C07EE901AF8EEE77A67EEC9
:10086000A67AFDEEE77A17EE901A22F8081C0133FB
:10087000DBB2E9E76B4603CBCCF80000CCF8041000
:1008800002B0704700803BC500803B450080BBC57F
:100890000080BB45000096C3000096439EF6D840FA
:1008A000D0A218400000000000A00C4610B50024A3
:1008B0001BE00F484FF4916304FB03F3C25E00EEAC
:1008C000102A0C4A32F9142000EE902AF8EEE00AC1
:1008D000B8EEC00A184403F072F9BDEEC00A064B28
:1008E00010EE102A23F814200134032CE1DD10BD92
:1008F00058040020401700203817002008B52DEDBF
:10090000028B144B93ED007ADFED137A87EE270A02
:10091000F1EE408A03F0E0FBB0EE408AB0EE680AE8
:1009200003F012FC0D4BD3ED017A67EE886A93ED6C
:10093000027A27EE006A76EE866A60EE677A27EE24
:10094000080A37EE800AC3ED016A83ED020ABDECA6
:10095000028B08BD0818002033336542241700209D
:1009600010B588B00F4B00221A705A709A70DA7066
:100970001A715A719A71DA710B4C07934FF4007324
:100980000693EC4604F1100EBEE80F00ACE80F0031
:100990009EE803008CE8030094E80F0000F04EF995
:1009A00008B010BD501700209455002010B588B035
:1009B000174B90F901201A70B0F900205A7090F985
:1009C00003209A70B0F90220DA7090F905201A71AC
:1009D000B0F904205A7190F907209A71B0F90620F5
:1009E000DA710C4C07934FF400730693EC4604F154
:1009F000100EBEE80F00ACE80F009EE803008CE884
:100A0000030094E80F0000F019F908B010BD00BF12
:100A1000481700209455002008B5084B084893ED6E
:100A2000031AD3ED020A93ED010AFFF769FEFFF7FF
:100A30003DFF0448FFF7BAFF08BD00BF24170020A0
:100A4000401700203817002000B583B0FFF742FDA3
:100A500001F0D9F901902CE0FFF7F6FD284B1B7847
:100A6000022B03D0274B0022DA600FE0DFED260ACD
:100A7000264B93ED000A264802F01CFE214B83ED25
:100A8000030AFFF73BFF01E0FFF7DEFD1C4B1B787D
:100A9000042B2FD01B4B1B78012B04D01D4B5B6B01
:100AA00013F4807F29D0FFF75BFF0A2101A801F032
:100AB000F5F9FFF775FD134B1B78032BCCD0052BF5
:100AC00007D0022BE0D00F4B00229A605A60DA6008
:100AD000DCE7FFF7B9FD104B1B7803EB83035B00EA
:100AE00007EE903AF8EEE77A064BC3ED037AFFF78C
:100AF00005FFCBE7FFF702FFCCE7FFF78DFFD4E759
:100B000058170020241700200000000008180020BB
:100B1000781600206C1700200418002008B54FF448
:100B2000FA7001F0AFF94FF40061024800F058FE8E
:100B3000F5E700BF001C024000B58BB0012208920F
:100B40000023069307920093019302930393059366
:100B500004936946134800F0A9F90028F9D1114817
:100B600000F040FA0028FAD102210E4800F08BFB79
:100B70000028F9D10E230993059369460A4800F02D
:100B800095F90028F9D1084800F02CFA0028FAD18C
:100B90000221054800F077FB0028F9D10BB05DF881
:100BA00004FB00BF94550020BC55002000B58BB05D
:100BB00001AB03AA002100F0C1FA039B40F23112FD
:100BC000934205D0B3F5997F1CD00BB05DF804FBC0
:100BD0009DF80420184B1A709DF805205A709DF856
:100BE00006209A709DF80720DA709DF808201A7187
:100BF0009DF809205A719DF80A209A719DF80B20E2
:100C0000DA71E2E79DF804200B4B1A729DF805207B
:100C10005A729DF806209A729DF80720DA729DF8A4
:100C200008201A739DF809205A739DF80A209A73B8
:100C30009DF80B20DA73C8E70C18002084B000B5CB
:100C400083B00DF1100C8CE80F000F980C4A0E9B2E
:100C5000136000239360D3600821116103E0C15C3D
:100C6000084AD1540133072BF9DD01AB054A044989
:100C700004A800F0E5F903B05DF804EB04B0704798
:100C8000241800201C18002082B00A4B5B680193D6
:100C9000019B02689B1A07EE903AF8EE677A064BC2
:100CA00093ED000AB8EE400A019B036087EE800ACC
:100CB00002B07047001000E03C18002010B5044658
:100CC0000E4B18784FF47A73B3FBF0F30C4A1068AC
:100CD000B0FBF3F000F072FC68B90F2C01D90120D1
:100CE0000AE0002221464FF0FF3000F021FC054BC6
:100CF0001C60002000E0012010BD00BF00000020AB
:100D00000C0000200400002008B50B4B1A6842F4C8
:100D100000721A601A6842F480621A601A6842F41B
:100D200080721A60032000F0F1FB0F20FFF7C6FF6E
:100D300002F020FA002008BD003C0240034A11687E
:100D4000034B1B780B441360704700BF4018002012
:100D500000000020014B1868704700BF40180020B9
:100D6000002800F0A18038B5044690F82030D3B1B7
:100D70002268136823F002031360FFF7EBFF0546B8
:100D800023685A6812F0020F10D0FFF7E3FF401BF0
:100D90000A28F5D9636A43F400336362052384F8B3
:100DA0002030012038BD02F025F8E1E71A6842F052
:100DB00001021A60FFF7CEFF054623685A6812F059
:100DC000010F0DD1FFF7C6FF401B0A28F5D9636A52
:100DD00043F400336362052384F820300120E1E707
:100DE000227E012A3DD01A6822F080021A60637EBA
:100DF000012B3BD02268136823F040031360A37ECD
:100E0000012B39D02268136823F020031360E37E9E
:100E1000012B37D02268136843F010031360237F3F
:100E2000012B35D02268136823F008031360637F19
:100E3000012B33D02268136823F004031360A368E6
:100E4000E268134322691343626913436268013AFB
:100E500021681343CB6100206062012384F82030B5
:100E6000A0E71A6842F080021A60C0E7226813689F
:100E700043F040031360C2E72268136843F0200385
:100E80001360C4E72268136823F010031360C6E7F9
:100E90002268136843F008031360C8E722681368E8
:100EA00043F004031360CAE70120704790F8203034
:100EB000013BDBB2012B05D9436A43F48023436233
:100EC0000120704730B5464BD3F8002242F00102B2
:100ED000C3F80022D3F8002222F47C52C3F8002287
:100EE000D3F80022486A42EA0022C3F800224A6985
:100EF00002F01F02012000FA02F2D3F81C026FEA8E
:100F0000020C20EA0200C3F81C02CB69C3B9344BBF
:100F1000D3F80C020CEA0000C3F80C028C88486974
:100F2000CD6844EA0544483043F830408C6808886E
:100F300040EA04404C6904F1480E03EBCE035860CC
:100F4000CB69012B1ED08B69002B33D12448D0F8FC
:100F500004320CEA0303C0F804320B698BBB20484F
:100F6000D0F814320CEA0303C0F814320B6A012BD8
:100F70002ED01B4AD2F8003223F00103C2F800320F
:100F8000002030BD164BD3F80C021043C3F80C02FE
:100F90008C8848690D6844EA0544483043F830407D
:100FA00088894C698D6840EA0540483403EBC403E6
:100FB0005860C8E70A48D0F804321343C0F8043236
:100FC000CBE70748D0F814321343C0F81432CDE70A
:100FD0000349D1F81C321A43C1F81C22C9E700BFEB
:100FE0000064004070B5044690F82050EDB2012D29
:100FF00006D0436A43F4002343620125284670BDAE
:10100000022380F820300268136823F00103136084
:10101000FFF7A0FE064623685B6813F0010F0CD0B3
:10102000FFF798FE831B0A2BF5D9636A43F400335C
:101030006362052384F82030E0E700256562DDE780
:1010400030B590F820C00468A4680CF1FF3C5FFA4A
:101050008CFCBCF1010F6BD814F0E05F62D0C4F3DC
:10106000016CBCF1020F05D9436A43F400034362EB
:10107000012062E0012404FA0CF41C608B68002B50
:101080003DD10D68CB68046843EA45550CF118035F
:101090001B01E55003680C690CF1180E03EB0E13ED
:1010A0005C600B7D012B35D0D17993791B0443EA29
:1010B0000163517943EA012314790168234301EB69
:1010C0000C11C1F88C31D17893781B0443EA016389
:1010D000517843EA0123117802680B4302EB0C12AA
:1010E000C2F8883102680CF1180C4FEA0C1C52F857
:1010F0000C3043F0010342F80C3000201DE04C6836
:1011000043EAC403CC6823430CF1180424010568A6
:101110002B51BFE7036803EB0E13596841F480714C
:101120005960C1E7436A43F400134362012004E0BD
:10113000436A43F480234362012030BD90F820C00D
:101140000CF1FF3C5FFA8CFCBCF1010F00F29580C2
:1011500030B451B90468E46814F0030F10D1436A45
:1011600043F400134362012077E00468246914F01B
:10117000030F05D1436A43F40013436201206CE07E
:1011800001F11B04240105682C5904F00404946047
:10119000002C64D101F11B04240105682C59640D55
:1011A0001460046801F11B0C4FEA0C1C54F80C404D
:1011B00004F00204D46004686444646804F00F041A
:1011C0001461046864446468C4F307249461046887
:1011D00064446468240C5461026802EB0112D2F882
:1011E000B8211A70026802EB0112D2F8B821C2F3DA
:1011F00007225A70026802EB0112D2F8B821C2F33A
:1012000007429A70026802EB0112D2F8B821120E5E
:10121000DA70026802EB0112D2F8BC211A7102687E
:1012200002EB0112D2F8BC21C2F307225A71026804
:1012300002EB0112D2F8BC21C2F307429A71026894
:1012400002EB0112D2F8BC21120EDA7179B90268F0
:10125000D36843F02003D360002030BC704701F115
:101260001B04240105682C59E408546099E70268BE
:10127000136943F020031361EEE7436A43F48023CC
:1012800043620120704790F82030013BDBB2012B14
:1012900005D9436A43F48023436201207047026802
:1012A0005369194351610020704770477047704778
:1012B0007047704770477047704770477047704776
:1012C00070472DE9F84F054603685C69D3F8048040
:1012D0009F68D3F80CB0D3F810A0D3F8189014F08E
:1012E00001063BD017F0010616D001229A6017F0D4
:1012F000020F08D117F0040F0CD117F0080606D022
:101300004FF4805608E0FFF7D0FF002604E0FFF717
:10131000CFFF01E04FF4006617F4807F0DD02B68FB
:101320004FF480729A6017F4007F40F0868017F4C3
:10133000806F00F0868046F4005617F4803F0DD091
:101340002B684FF480329A6017F4003F40F083809E
:1013500017F4802F00F0838046F4004614F0080F45
:1013600007D01BF0100F04D046F400762B68102233
:10137000DA6014F0040F02D01BF0080F79D114F0DA
:10138000020F04D02B68DB6813F0030F78D114F040
:10139000400F07D01AF0100F04D046F480662B6877
:1013A00010221A6114F0200F02D01AF0080F6BD12E
:1013B00014F0100F04D02B681B6913F0030F6AD1CF
:1013C00014F4003F02D018F0100F68D114F4803FDD
:1013D00002D018F0080F69D114F4004F7AD018F039
:1013E000040F74D014F4807F04D019F0010F01D0E1
:1013F00046F0010614F4007F04D019F0020F01D06A
:1014000046F0020614F4806F04D019F0040F01D0E6
:1014100046F0040614F4006F59D019F0700956D044
:10142000B9F1400F65D058D8B9F1200F5ED0B9F1AD
:10143000300F42D146F0200644E02846FFF736FF41
:101440007BE717F4006F02D046F4804675E7284624
:10145000FFF72FFF71E72846FFF729FF7EE717F414
:10146000002F02D046F4803678E72846FFF722FFA7
:1014700074E72B680822DA602846FFF71CFF7EE736
:101480002846FFF793FB82E72B6808221A6128465B
:10149000FFF713FF8CE72846FFF70EFF90E72B6856
:1014A00010225A602846FFF709FF8FE72B680822B1
:1014B0005A602846FFF703FF8EE7B9F1100F01D1FC
:1014C00046F008062A68936923F0700393612B683D
:1014D00004225A609EB9BDE8F88FB9F1500F0BD0C5
:1014E000B9F1600FEED146F48076EBE746F01006D6
:1014F000E8E746F04006E5E746F08006E2E76B6A7B
:101500001E436E622846FFF7DBFEE4E7074AD36816
:1015100023F4E0631B041B0C000200F4E0600343AF
:1015200043F0BF6343F40033D360704700ED00E045
:1015300000B5194BDB68C3F30223C3F1070CBCF100
:10154000040F28BF4FF0040C03F1040EBEF1060F88
:1015500018D9033B4FF0FF3E0EFA0CFC21EA0C01B8
:1015600099400EFA03F322EA0303194300280BDB28
:101570000901C9B200F1604000F5614080F8001334
:101580005DF804FB0023E5E700F00F000901C9B294
:10159000024B1954F4E700BF00ED00E014ED00E049
:1015A000002807DB00F01F02400901239340024A94
:1015B00042F82030704700BF00E100E00138B0F190
:1015C000807F0BD24FF0E0235861054AF02182F86A
:1015D00023100020986107221A617047012070478C
:1015E00000ED00E058B110B5044643791BB101236A
:1015F0006371002010BD037101F09CFCF7E701202E
:101600007047000000230F2B00F2DA80F0B583B0A2
:101610003AE0072200E00022AA4032430234694D3A
:1016200045F82420684A14686FEA0C0224EA0C0585
:101630004E6816F4803F01D04CEA0405624C2560E8
:10164000646802EA04054E6816F4003F01D04CEAD3
:1016500004055D4C6560A46802EA04054E6816F452
:10166000801F01D04CEA0405574CA560E468224075
:101670004D6815F4001F01D04CEA0402524CE260A0
:1016800001330F2B00F29A8001229A400C6804EA81
:10169000020C32EA0404F3D14C68651E012D03D913
:1016A000112C01D0122C12D185685E000324B440A5
:1016B00025EA0405CC68B4402C438460456825EADB
:1016C00002054C68C4F300129A402A434260C56880
:1016D0004FEA430E032404FA0EF4E24325EA04051C
:1016E0008C6804FA0EF42C43C4604C68022C01D0C0
:1016F000122C0FD1DD08083550F8257003F00704CF
:10170000A6000F24B44027EA04070C69B4403C4308
:1017100040F82540046814404A6802F0030202FAC7
:101720000EF2224302604A6812F0805FA8D00022C5
:101730000192264A546C44F480445464526C02F47E
:1017400080420192019A9C08A51C1E4A52F825600D
:1017500003F0030295000F22AA4026EA02061C4A63
:1017600090423FF458AF02F5806290421AD002F5E1
:101770008062904218D002F58062904216D002F545
:101780008062904214D002F58062904212D002F53D
:101790008062904210D002F5806290423FF439AFEF
:1017A000082239E7012237E7022235E7032233E72F
:1017B000042231E705222FE706222DE703B0F0BD12
:1017C000704700BF00380140003C01400038024033
:1017D000000002400AB181617047090481617047CD
:1017E000436931EA030301D08161704709048161D3
:1017F00070470000002800F0DA8170B582B004461E
:10180000036813F0010F3BD09F4B9B6803F00C0360
:10181000042B2CD09C4B9B6803F00C03082B21D08D
:101820006368B3F5803F4FD0B3F5A02F52D0964BED
:101830001A6822F480321A601A6822F480221A6030
:101840006368002B50D0FFF785FA05468E4B1B6866
:1018500013F4003F14D1FFF77DFA401B6428F5D93B
:101860000320ABE1884B5B6813F4800FD8D0864B24
:101870001B6813F4003F03D06368002B00F09981CC
:10188000236813F0020F54D07F4B9B6813F00C0FAA
:101890003ED07D4B9B6803F00C03082B33D0E368EC
:1018A000002B68D0794B01221A60FFF753FA0546E6
:1018B000754B1B6813F0020F54D1FFF74BFA401B16
:1018C0000228F5D9032079E16F4A136843F4803385
:1018D0001360B5E76C4B1A6842F480221A601A68EC
:1018E00042F480321A60ABE7FFF734FA0546664BE4
:1018F0001B6813F4003FC3D0FFF72CFA401B642889
:10190000F5D903205AE1604B5B6813F4800FC6D110
:101910005D4B1B6813F0020F03D0E368012B40F00E
:101920004A81594A136823F0F803216943EAC10345
:101930001360236813F0080F42D063696BB3534BF5
:101940000122C3F8802EFFF705FA05464E4B5B6F68
:1019500013F0020F34D1FFF7FDF9401B0228F5D92F
:1019600003202BE1484A136823F0F803216943EA76
:10197000C1031360DDE7454B00221A60FFF7EAF967
:101980000546414B1B6813F0020FD2D0FFF7E2F976
:10199000401B0228F5D9032010E13C4B0022C3F87C
:1019A000802EFFF7D7F90546374B5B6F13F0020F18
:1019B00006D0FFF7CFF9401B0228F5D90320FDE040
:1019C000236813F0040F77D02F4B1B6C13F0805F4C
:1019D00033D1002301932C4B1A6C42F080521A64CD
:1019E0001B6C03F080530193019B0125284B1B685E
:1019F00013F4807F23D0A368012B34D0052B38D07B
:101A0000214B1A6F22F001021A671A6F22F00402AA
:101A10001A67A368002B3DD0FFF79CF906461A4BC6
:101A20001B6F13F0020F46D1FFF794F9801B41F2B0
:101A300088339842F3D90320C0E00025D6E7144A42
:101A4000136843F480731360FFF784F90646104B64
:101A50001B6813F4807FCED1FFF77CF9801B02282E
:101A6000F5D90320AAE0084A136F43F00103136776
:101A7000CFE7054B1A6F42F004021A671A6F42F063
:101A800001021A67C5E700BF003802400000474264
:101A900000700040FFF75EF906464F4B1B6F13F0D6
:101AA000020F08D0FFF756F9801B41F288339842A5
:101AB000F3D9032082E0E5B9A369002B7DD0464A23
:101AC000926802F00C02082A51D0022B17D0434B27
:101AD00000221A66FFF73EF904463F4B1B6813F0DD
:101AE000007F42D0FFF736F9001B0228F5D903200A
:101AF00064E0394A136C23F080531364DCE7374BFE
:101B000000221A66FFF726F90546334B1B6813F0CF
:101B1000007F06D0FFF71EF9401B0228F5D90320ED
:101B20004CE0E369226A1343626A43EA8213A26AC1
:101B30005208013A43EA0243E26A43EA0263264A50
:101B40005360264B01221A66FFF704F90446224B24
:101B50001B6813F0007F06D1FFF7FCF8001B02287A
:101B6000F5D903202AE0002028E0002026E0012B00
:101B700026D0194B5B6803F48001E269914221D1C0
:101B800003F03F02216A8A421ED1616A47F6C072A1
:101B90001A408A421AD103F44032A16A8A4217D10C
:101BA00003F07063E26A934214D1002006E0012042
:101BB0007047012002E0012000E0002002B070BD6B
:101BC0000120FBE70120F9E70120F7E70120F5E715
:101BD0000120F3E70120F1E700380240000047420E
:101BE00008B5254B9B6803F00C03042B3FD0082B52
:101BF0003FD1214B5A6802F03F025B6813F4800F1B
:101C000012D01D4B5968C1F388111C480023A1FB59
:101C10000001FEF7DDFA184B5B68C3F301430133A3
:101C20005B00B0FBF3F025E0134B5968C1F3881C4F
:101C30004FEA4C11B1EB0C006EEB0E0E4FEA8E1317
:101C400043EA90638101091A63EB0E03DB0043EA68
:101C50005173C90011EB0C0C43F1000399020023EE
:101C60004FEA8C2041EA9C51FEF7B2FAD3E70348D1
:101C700000E0034808BD00BF00380240001BB70069
:101C80000024F400002800F09B8070B50D46044647
:101C90004F4B1B6803F00F038B4208D2CBB24C4A68
:101CA0001370136803F00F038B4240F08B8023689E
:101CB00013F0020F17D013F0040F04D0454A9368B5
:101CC00043F4E0539360236813F0080F04D0414AB3
:101CD000936843F4604393603E4A936823F0F003B3
:101CE000A1680B439360236813F0010F32D063683F
:101CF000012B21D09A1E012A25D9364A126812F0EA
:101D0000020F61D033498A6822F0030213438B60CB
:101D1000FFF720F806462F4B9B6803F00C03626820
:101D2000B3EB820F16D0FFF715F8801B41F2883312
:101D30009842F0D9032042E0264A126812F4003F8C
:101D4000E0D101203BE0234A126812F0007FD9D194
:101D5000012034E01E4B1B6803F00F03AB4207D990
:101D6000EAB21B4B1A701B6803F00F03AB422DD174
:101D7000236813F0040F06D0164A936823F4E05347
:101D8000E1680B439360236813F0080F07D0114AF2
:101D9000936823F46043216943EAC1039360FFF72A
:101DA0001FFF0C4B9B68C3F303130B4AD35CD84053
:101DB0000A4B18600A4B1868FEF780FF002070BDC0
:101DC000012070470120FAE70120F8E70120F6E73B
:101DD000003C0240003802403C4E00080C0000204D
:101DE00004000020842801D0033070470020704791
:101DF000EFF30580003818BF0120704708B500F0E8
:101E00006BFD002008BD08B5FFF7F2FF10B100F030
:101E1000ABFD08BD00F0A2FDFBE72DE9F04387B064
:101E200004460F464569BDB18669AEB1D0F804805D
:101E3000D0F80090B0F90800FFF7D4FF02960195A2
:101E400000903B4622694946404600F0D5FC05908B
:101E5000059807B0BDE8F08365682668D4F810805F
:101E6000B4F90800FFF7BEFF05AB019300903B46B5
:101E70001FFA88F23146284600F0F9FC0128E7D025
:101E80000020E6E708B500B9012000F07DFE002043
:101E900008BD08B500F0EAFE002008BD81207047AB
:101EA00000F1080343604FF0FF328260C3600361BA
:101EB00000230360704700230361704743684B6051
:101EC0009A688A6051609960086103680133036011
:101ED000704730B40D68B5F1FF3F11D000F1080331
:101EE0001C465B681A68AA42FAD963684B6099601D
:101EF0008C606160086103680133036030BC704727
:101F00000469F2E70369416882688A604168516048
:101F10005A68824206D0002202611A68013A1A60A9
:101F20001868704782685A60F5E7000082B00023A5
:101F300001930D4B1B68B3F1FF3F08D04FF05003E6
:101F400083F31188BFF36F8FBFF34F8FFEE74FF01E
:101F5000500383F31188BFF36F8FBFF34F8F019B43
:101F6000002BFCD002B07047080000200848006831
:101F7000006880F308884FF0000080F3148862B690
:101F800061B6BFF34F8FBFF36F8F00DF00BF00005C
:101F900008ED00E0DFF80C00016841F47001016019
:101FA0007047000088ED00E04FF0807340F8043C7B
:101FB00021F0010140F8081C054B40F80C3C40F8AA
:101FC000202C6FF0020340F8243C4438704700BFD7
:101FD0002D1F0008000000000000000000000000AD
:101FE000074B19680868B0E8F04F80F30988BFF321
:101FF0006F8F4FF0000080F311887047AFF30080BF
:10200000645400204FF0500383F31188BFF36F8FA7
:10201000BFF34F8F0B4A136801331360012B00D0BD
:1020200070474FF0E023D3F8043D13F0FF0FF7D0D3
:102030004FF0500383F31188BFF36F8FBFF34F8FBF
:10204000FEE700BF08000020094B1B6843B94FF0B2
:10205000500383F31188BFF36F8FBFF34F8FFEE7F9
:10206000013B034A13600BB983F31188704700BF2B
:102070000800002000000000000000000000000038
:10208000EFF30980BFF36F8F154B1A681EF0100F26
:1020900008BF20ED108A20E9F04F10602DE90900FB
:1020A0004FF0500080F31188BFF34F8FBFF36F8F55
:1020B00000F090FD4FF0000080F3118809BC196812
:1020C0000868B0E8F04F1EF0100F08BFB0EC108A9F
:1020D00080F30988BFF36F8F704700BFAFF30080B4
:1020E0006454002008B54FF0500383F31188BFF308
:1020F0006F8FBFF34F8F00F03FFC28B14FF0E0230C
:102100004FF08052C3F8042D002383F3118808BDDB
:102110004FF0E022002313619361054B1B680549D2
:10212000A1FB03139B09013B536107231361704714
:102130000C000020D34D62104FF0E023D3F8002DA7
:102140003D4B9A421CD04FF0E023D3F8002D3B4B7F
:102150009A421ED030B583B0394B1A78D2B2019270
:10216000FF221A701B78DBB28DF803309DF8033024
:1021700003F05003334A1370334B07221A601BE0FD
:102180004FF0500383F31188BFF36F8FBFF34F8F6E
:10219000FEE74FF0500383F31188BFF36F8FBFF357
:1021A0004F8FFEE7284A1368013B13609DF8033008
:1021B0005B00DBB28DF803309DF8033013F0800F25
:1021C000F0D1214B1B68032B08D04FF0500383F351
:1021D0001188BFF36F8FBFF34F8FFEE71B021A4AC0
:1021E000136003F4E0631360019BDBB2144A1370C5
:1021F0004FF0E024D4F8203D43F47003C4F8203DB0
:10220000D4F8203D43F07043C4F8203DFFF780FF31
:1022100000250E4B1D60FFF7BDFED4F8343F43F0A0
:102220004043C4F8343FFFF7A1FE00F0D3FCFFF7B2
:102230007DFE284603B030BD71C20F4170C20F4110
:1022400000E400E0441800204818002008000020A6
:10225000EFF305830F2B0FD9114A9B5CDBB2114AB8
:1022600012789A4208D94FF0500383F31188BFF3D4
:102270006F8FBFF34F8FFEE74FF0E023D3F80C3D95
:1022800003F4E063084A1268934208D94FF0500300
:1022900083F31188BFF36F8FBFF34F8FFEE7704753
:1022A000F0E300E04418002048180020124A12F021
:1022B000070F1ED0D11D21F00701C1F57053134443
:1022C0000A460E480260002141601344083B23F097
:1022D00007030B48036059601960991A5160136035
:1022E000084B1960084B1960084B4FF000421A6008
:1022F00070474FF47053E4E7501800205C540020FE
:102300004C180020585400205454002050540020F1
:10231000164B1A461B688342FBD3516802EB010C33
:10232000844509D0416800EB010C634509D0036086
:10233000904219D0106070474068014451601046C7
:10234000F0E710B40A4C2468A3420BD05B68194430
:10235000416013681B680360904200D010605DF814
:10236000044B70470460F7E7704700BF5C540020DF
:102370004C18002070B5054600F0E8FA344B1B6895
:10238000A3B1344B1B681D424AD135B1083515F055
:10239000070F02D025F007050835002D42D02E4B3F
:1023A0001B68AB424DD32D4A146804E0FFF77EFF53
:1023B000E7E722461C466368AB4202D22368002B43
:1023C000F7D1234B1B68A3423DD01668083623681B
:1023D000136063685B1B102B10D9601910F0070F96
:1023E00008D04FF0500383F31188BFF36F8FBFF312
:1023F0004F8FFEE743606560FFF78AFF626816490A
:102400000B689B1A0B60164909688B4201D214496C
:102410000B60104B1B68134363600023236002E0D2
:10242000002600E0002600F033FB16F0070F0CD06A
:102430004FF0500383F31188BFF36F8FBFF34F8FBB
:10244000FEE70026EFE70026EDE7304670BD00BF4F
:102450004C18002050540020545400205C5400209C
:102460005854002080B338B50446A0F1080550F850
:10247000043C164A1268134208D14FF0500383F30C
:102480001188BFF36F8FBFF34F8FFEE750F8081C22
:1024900041B14FF0500383F31188BFF36F8FBFF347
:1024A0004F8FFEE723EA020340F8043C00F04EFAA7
:1024B00054F8041C064A13680B4413602846FFF7BF
:1024C00027FF00F0E5FA38BD704700BF50540020E8
:1024D00054540020084B1B681B6823B9074B4FF06E
:1024E000FF321A607047044B1B68DB68DB685A6870
:1024F000024B1A60704700BF68540020405500200E
:102500002DE9F04707469846089DDDF824900A9C7F
:10251000266B02F18042013A06EB820626F007069E
:1025200000293AD08E464FF0000CBCF10F0F0BD8AB
:102530001EF80C2004EB0C0383F834201EF80C303A
:1025400013B10CF1010CF0E7002384F84330062DA1
:1025500000D90625E56265644FF0000AC4F848A07A
:10256000201DFFF7A8FC04F11800FFF7A4FC24616C
:10257000C5F10705A5616462C4F84CA084F850A0B9
:10258000424639463046FFF70FFD2060B9F1000F93
:1025900001D0C9F80040BDE8F087002384F834304A
:1025A000D5E7000038B5002407E004EB840293006F
:1025B0000E481844FFF774FC0134062CF5D90C4D75
:1025C0002846FFF76DFC0B4C2046FFF769FC0A48D4
:1025D000FFF766FC0948FFF763FC0948FFF760FC5A
:1025E000084B1D60084B1C6038BD00BF70540020B4
:1025F000145500202855002048550020745500200F
:1026000060550020685400206C54002010B504462A
:10261000FFF7F8FC214A136801331360204B1B6855
:102620005BB1204B1B686BB91D4B1B68DA6AE36A10
:102630009A4207D81A4B1C6004E0194B1C601368BF
:10264000012B28D0184A136801331360E06A012374
:102650008340164A11680B43136000EB8000211D74
:10266000134B03EB8000FFF729FCFFF7EDFC0D4B4C
:102670001B687BB10A4B1B68DA6AE36A9A4209D28B
:102680004FF0E0234FF08052C3F8042DBFF34F8F7B
:10269000BFF36F8F10BDFFF785FFD3E7FC54002019
:1026A000645400205C5500200C550020105500207B
:1026B0007054002010B5044690F8513063B1012BDE
:1026C00011D0022B0ED04FF0500383F31188BFF3CB
:1026D0006F8FBFF34F8FFEE7006BFFF7C3FE2046FF
:1026E000FFF7C0FE10BDFFF7BDFEFBE70F4B1B68F9
:1026F000D3B110B5FFF786FC0D4BDB68DC68201DFD
:10270000FFF700FC0B4A1368013B1360074A13688C
:10271000013B1360FFF798FC2046FFF7CBFF034B0C
:102720001B68002BE6D110BD704700BF005500208C
:1027300074550020FC54002008B5FFF7D7FF074B65
:102740001B68012BF9D94FF0E0234FF08052C3F8FA
:10275000042DBFF34F8FBFF36F8FEEE7705400204F
:1027600070B504460D461D4B1E681D4B186804309D
:10277000FFF7C8FB50B91A4B1B68DA6A012303FA4A
:1027800002F218490B6823EA02030B60B4F1FF3F21
:102790000DD03444124B1B685C60A64210D9124B1A
:1027A00018680F4B19680431FFF793FB70BD002DBB
:1027B000EFD00B4B196804310C48FFF77FFBF5E7AE
:1027C0000B4B1868064B19680431FFF782FB094B65
:1027D0001B68A342EAD9074B1C60E7E78855002035
:1027E00064540020105500206C54002060550020D7
:1027F000685400204055002030B587B00B9C7CB158
:102800000C9DB5B154250495049D542D1AD04FF05C
:10281000500383F31188BFF36F8FBFF34F8FFEE731
:102820004FF0500383F31188BFF36F8FBFF34F8FC7
:10283000FEE74FF0500383F31188BFF36F8FBFF3B0
:102840004F8FFEE7049D0C9D2C63022485F85140B8
:1028500000240394029505AC01940A9C0094FFF7B0
:102860004FFE0C98FFF7D2FE059807B030BD2DE95A
:10287000F04385B00746884614461E469000FFF791
:1028800079FD00B381465420FFF774FD0546B0B1D1
:10289000C0F83090E5B1002385F8513003930295DC
:1028A0000D9B01930C9B00933346224641463846CC
:1028B000FFF726FE2846FFF7A9FE012005E048465F
:1028C000FFF7D0FDE6E74FF0FF3005B0BDE8F0833D
:1028D0004FF0FF30F9E7000010B588B000240594F0
:1028E000069407AA06A905A800F042FB059B0293DF
:1028F000069B019300942346079A0E490E48FFF762
:102900007BFF0E4B186090B14FF0500383F311889A
:10291000BFF36F8FBFF34F8F094B4FF0FF321A6039
:10292000084B01221A60084B1C60FFF705FC08B039
:1029300010BD00BF144E0008392700083C55002088
:10294000405500205C55002088550020024A13683D
:1029500001331360704700BF08550020014B186811
:10296000704700BF8855002008B5FFF771FC014B88
:10297000186808BD88550020F8B53A4B1B68002B35
:1029800064D1394B1D6801351D60C5B9374B1B68D3
:102990001B6843B14FF0500383F31188BFF36F8F6F
:1029A000BFF34F8FFEE7314A1168314B1868106052
:1029B0001960304A136801331360FFF78BFD2E4B0B
:1029C0001B68AB4238D900272C4B1B68DB6A03EB32
:1029D00083039A002A4B9B58012B3CD901273AE0EC
:1029E0000127224B1B681B6843B3204B1B68DB6825
:1029F000DC6863689D4226D3261D3046FFF782FAC5
:102A0000A36A1BB104F11800FFF77CFAE36A012204
:102A10009A401C49086802430A6003EB83039A004A
:102A2000314617481044FFF749FAE26A134B1B6816
:102A3000DB6A9A42D4D2D4E70027D2E70E4B4FF09C
:102A4000FF321A60C0E70C4A1360BDE70E4A1368F4
:102A50000133136000270D4B1B6803B10127384673
:102A6000F8BD00BF0855002088550020685400209C
:102A70006C54002044550020405500206454002030
:102A80007054002010550020045500208C55002063
:102A900038B5354B1B6843B94FF0500383F31188A9
:102AA000BFF36F8FBFF34F8FFEE7FFF7ABFA2E4BED
:102AB0001A68013A1A601B68002B4FD12B4B1B6818
:102AC0000BB900244BE00024294B1B681BB3284B97
:102AD000DB68DC6804F11800FFF714FA251D2846AE
:102AE000FFF710FAE06A01238340224A11680B4382
:102AF000136000EB800029461F4B03EB8000FFF7BB
:102B0000DDF9E26A1D4B1B68DB6A9A42DCD31C4B81
:102B100001221A60D8E70CB1FFF7DCFC194B1C68E6
:102B200084B9174B1C68D4B14FF0E0234FF08052AA
:102B3000C3F8042DBFF34F8FBFF36F8F01240EE056
:102B4000013C07D0FFF718FF0028F9D00C4B0122F9
:102B50001A60F5E70B4B00221A60E2E70024FFF74A
:102B600073FA204638BD00BF08550020FC540020F1
:102B70004855002010550020705400206454002057
:102B80008C5500200455002010B5A8B10446104B08
:102B90001B6843B14FF0500383F31188BFF36F8F6D
:102BA000BFF34F8FFEE7FFF7D1FE00212046FFF76E
:102BB000D7FDFFF76DFF48B94FF0E0234FF080528B
:102BC000C3F8042DBFF34F8FBFF36F8F10BD00BF4D
:102BD00008550020204B1B681BB1204B01221A60B6
:102BE00070471E4B00221A601D4B1B68B3FA83F31B
:102BF000DBB2C3F11F0303EB83018A0019498A5832
:102C000042B94FF0500383F31188BFF36F8FBFF3C6
:102C10004F8FFEE7134903EB830082000A4450689C
:102C20004068506003EB830C4FEA8C020832114479
:102C3000884209D003EB83039A000A4B13445B6874
:102C4000DA68094B1A607047406862469100054A8D
:102C50000A445060EEE700BF085500208C55002064
:102C600010550020705400206454002038B50446EC
:102C7000FFF7C8F95CB3251D2846FFF743F968B98B
:102C8000E26A02EB82039B002B49CB5833B9012344
:102C900093402A490A6822EA03020A60A36A1BB128
:102CA00004F11800FFF72EF929462548FFF706F929
:102CB00094F85030DBB2012B0CD0FFF7C5F9214B53
:102CC0001B685BB9204B1B68A3420ED038BD1E4B5E
:102CD0001C68D0E7002384F85030EEE7FFF792F944
:102CE000FFF7F8FBFFF7B0F9ECE7164B1B68B3B141
:102CF000164B1B6843B14FF0500383F31188BFF3A9
:102D00006F8FBFF34F8FFEE74FF0E0234FF08052FD
:102D1000C3F8042DBFF34F8FBFF36F8FD6E7084B77
:102D20001A680B4B1B689A4203D1074B00221A60AA
:102D3000CCE7FFF74FFFC9E7705400201055002083
:102D4000605500205C550020645400200855002088
:102D5000FC540020054B1B6833B1054B1B680BB1BD
:102D60000020704702207047012070475C5500200A
:102D70000855002008B50D480D4B03600323436040
:102D800000238360C3604FF4102202614FF40012ED
:102D90004261037643768376C37603774377FDF704
:102DA000DFFF00B908BD00F07BF9FBE79455002078
:102DB0000064004008B50D480D4B036003234360D9
:102DC00000238360C3604FF4102202614FF40012AD
:102DD0004261037643768376C37603774377FDF7C4
:102DE000BFFF00B908BD00F05BF9FBE7BC55002050
:102DF0000068004010B58AB000230593069307933E
:102E00000893099303683D4A934204D03C4A934295
:102E100034D00AB010BD3B4A136801331360012B54
:102E20001FD000240194384B1A6B42F008021A6339
:102E30001B6B03F008030193019B032305930222FC
:102E4000069208930923099305A93048FEF7DAFB97
:102E5000224605211420FEF76BFB1420FEF7A0FB91
:102E6000D7E700230093284B1A6C42F000721A64D3
:102E70001B6C03F000730093009BD2E700230293C6
:102E8000214B1A6C42F080621A641B6C03F0806361
:102E90000293029B1B4A136801331360012B20D05D
:102EA00000240494184B1A6B42F002021A631B6B45
:102EB00003F002030493049B60230593022306930B
:102EC000032308930923099305A91148FEF79AFBE8
:102ED000224605214020FEF72BFB4020FEF760FB39
:102EE00097E700230393084B1A6C42F000721A64B0
:102EF0001B6C03F000730393039BD1E70064004055
:102F0000006800409055002000380240000C02404C
:102F10000004024008B50548054B0360FEF762FB5C
:102F200000B908BD00F0BCF8FBE700BFE455002085
:102F3000003002400268094B9A4200D0704782B0CC
:102F400000230193064B1A6B42F480521A631B6BE9
:102F500003F480530193019B02B07047003002409C
:102F60000038024008B50120FEF78CFFFBE70000A7
:102F7000034B0360034B0B6080231360704700BF5B
:102F8000F8570020F855002010B596B01B4C0DF1F5
:102F90003C0CA646BEE80F00ACE80F009EE8070018
:102FA0008CE8070000210FA8FEF737FF144B1860CC
:102FB0000DF1200C04F11C0EBEE80F00ACE80F0070
:102FC0009EE807008CE80700002108A8FEF725FF0F
:102FD0000C4B18600DF1040E04F1380CBCE80F0026
:102FE000AEE80F009CE807008EE80700002101A86A
:102FF000FEF713FF044B186016B010BDC04D00085B
:10300000F4550020EC550020F055002030B58BB071
:1030100000240594069407940894099401941E4B87
:103020001A6B42F002021A631A6B02F0020201925A
:10303000019A02941A6B42F001021A631A6B02F0B1
:1030400001020292029A03941A6B42F008021A6378
:103050001A6B02F008020392039A04941A6B42F06E
:1030600080021A631B6B03F080030493049B0B4DD7
:1030700022464FF4E0512846FEF7ACFB4FF4E053F4
:103080000593012306930794089405A92846FEF7A3
:10309000B9FA0BB030BD00BF00380240001C02403E
:1030A00072B6FEE700B595B03022002108A800F006
:1030B00051FF002303930493059306930793019311
:1030C000204A116C41F080511164126C02F0805260
:1030D0000192019A02931C4B1A6842F480421A60D2
:1030E0001B6803F480430293029B012308934FF46F
:1030F0008033099302230E934FF480020F9206222D
:103100001092A822119212930823139308A8FEF795
:1031100071FB98B90F2303930223049300230593B3
:103120004FF4A05306934FF480530793052103A84F
:10313000FEF7A8FD20B915B05DF804FBFFF7B0FF5E
:10314000FFF7AEFF003802400070004008B5FDF701
:10315000DBFDFFF7A7FFFFF759FFFFF70BFEFFF7B8
:1031600029FEFFF7D7FEFDF7E7FCFFF70DFFFEF79F
:1031700045FEFEE700B583B0002200920D4B596C6E
:1031800041F480415964596C01F4804100910099E7
:103190000192196C41F0805119641B6C03F080534B
:1031A0000193019B0F216FF00100FEF7C1F903B0FD
:1031B0005DF804FB00380240FEE7FEE7FEE7FEE7AD
:1031C000FEE7704708B5FDF7B9FDFFF7C3FD01281D
:1031D00000D108BDFEF786FFFBE7000008B50248F6
:1031E000FEF76FF808BD00BF9455002008B50248EF
:1031F000FEF767F808BD00BFBC550020054BD3F8AB
:10320000882042F47002C3F888204FF000629A6070
:10321000704700BF00ED00E0D0F89430FBB1826849
:1032200007EE902A5B6807EE103A37EE877A8369DB
:1032300007EE903AC36906EE903A77EEA67AF6EE7C
:10324000006A67EEA67A67EE277AD0F8903007EE2C
:10325000103A67EE877A17EE903A036370478368F7
:1032600007EE903A836907EE103AC36906EE903A8A
:1032700037EE267AF6EE006A27EE267A67EE877A30
:10328000D0F8903007EE103A67EE877A17EE903A52
:1032900003637047836907EE903A836A07EE103A3A
:1032A00027EE877AB5EEC07AF1EE10FA2ADDF5EE58
:1032B000C07AF1EE10FA20DD436D07EE103AB4EE5D
:1032C000E77AF1EE10FA1DDA036D06EE903A37EE6A
:1032D000266AB4EEE76AF1EE10FA11DB76EEE77AD1
:1032E00077EE277A87EEA67A036B07EE903A27EE01
:1032F000277A17EE103A03637047F1EE677ADBE73F
:103300000023036370470000836A06EE103A036BE4
:1033100006EE903A76EE266A224BC3ED006A436AC7
:1033200007EE903A36EE277AC36A07EE903A77EEC8
:10333000277A1D4BC3ED007AF5EEC07AF1EE10FA54
:103340002DDD036C07EE103AB4EEE77AF1EE10FAD9
:103350000BD5836907EE903A26EE276AB5EEC06A70
:10336000F1EE10FA01DD00230363436C07EE903A9F
:10337000F4EEE76AF1EE10FA04DD0023036317EEC2
:10338000903A8362F1EE677AF4EEE76AF1EE10FAB2
:1033900004D50023036317EE903A83627047F1EE81
:1033A000677ACEE74C58002050580020C36A06EEDA
:1033B000103AD0F8903007EE903A26EE276AC36DA7
:1033C00007EE103A77EE877AC6EE276AC36B06EEF1
:1033D000103A27EE067A87EE276A76EE866A16EEB0
:1033E000903AC3627047436B06EE103AD0F89030C3
:1033F00007EE903A26EE276A836D07EE103A77EED5
:10340000877AC6EE276A836B06EE103A27EE067AB5
:1034100087EE276A76EE866A16EE903A4363704727
:10342000436B026C07EE902A07EE103AB4EEE77A8F
:10343000F1EE10FA00DD4263436BF1EE677A07EEBE
:10344000103AB4EEE77AF1EE10FA02D517EE903AA0
:1034500043637047436A026C07EE902A07EE103A06
:10346000B4EEE77AF1EE10FA00DD4262436AF1EE63
:10347000677A07EE103AB4EEE77AF1EE10FA02D569
:1034800017EE903A43627047436B026C07EE902A46
:103490009FED287A67EE877A07EE103AB4EEE77A66
:1034A000F1EE10FA33D4036807EE903AB0EEE77A03
:1034B000DFED216AB4EEE67AF1EE10FA27D4036963
:1034C00006EE903A77EEE67AF0EEE77AC7EE876A94
:1034D000DFED1A7AF4EEE76AF1EE10FA18DDD0F8B3
:1034E0009930D0F89D20013342F10002C0F89930A4
:1034F000C0F89D20D0F89910D0F89D3040F2F51218
:10350000914273F1000302D3012380F8A130704788
:10351000002280F8992080F89A2080F89B2080F87B
:103520009C2080F89D2080F89E2080F89F2080F8C5
:10353000A020DFE76F12833A17B7D1383333733FD8
:1035400010B52DED028B0446D0F894300BB3B0F8D3
:103550006020022A4DD8C26807EE902A9B6807EEC9
:10356000103A37EE877A436907EE903A036906EE20
:10357000903A77EEE67A67EE277AD0F8902007EE59
:10358000102AC7EE877A17EE903AC362BDEC028B21
:1035900010BDB0F86030022B16D8C36807EE903A21
:1035A000436907EE103A036906EE903A37EE667A01
:1035B00067EE877AD0F8902007EE102AC7EE877A58
:1035C00017EE903AC362E1E7C36808EE103A036968
:1035D00000EE903AD0F8903000EE103AF1EE600A2A
:1035E000623000F071FB28EE008A18EE103AE362B8
:1035F000CCE7C26808EE102A9B6807EE903A38EED6
:10360000278A036900EE903AD0F8903000EE103A25
:10361000F1EE600A623000F057FB28EE008A18EEE7
:10362000103AE362B2E770B50446164611EE103A5E
:10363000836410EE903A436410EE103A0364002560
:10364000056011EE903A436012EE103A836012EE7C
:10365000903AC360056313EE103A036513EE903A97
:10366000436514EE103A836514EE903AC365A0F8F2
:103670006010623000F0FBFA84F88C5084F88D50B2
:1036800084F88E5084F88F5084F8986084F89950AC
:1036900084F89A5084F89B5084F89C5084F89D508C
:1036A00084F89E5084F89F5084F8A05084F8A1506C
:1036B000656370BD10B52DED028B0446F0EE408AB7
:1036C000B0EE608A90F99830002BC0F2BF8004F110
:1036D0008C00FDF7D9FA10EE103AC4F8903018EECD
:1036E000903A236118EE103A236038EE688A18EE9B
:1036F000103AA361D4F8A2300BB120469847A369D1
:1037000000EE903AF5EEC00AF1EE10FA40F3A18017
:1037100007EE903AA36C07EE103AB4EEE77AF1EEBA
:1037200010FA40F18480D4F89430002B00F094809B
:10373000626807EE902A1A6807EE102A77EE877AF9
:1037400060EEA77A17EE902A6262A26807EE902ACE
:103750005A6807EE102A77EE877A60EEA77AD4F8D7
:10376000902000EE102A67EE807A17EE902A2263EE
:10377000B4F86020022A00F2A680E26807EE902AE0
:103780009B6807EE103A77EE877AE36907EE103A06
:1037900070EEC70A67EEA00AC0EE807A17EE903A84
:1037A000E362D4F8A6300BB12046984794F89830DD
:1037B00013F0040F40F0998094F8983013F0200F24
:1037C00040F0978094F8983013F0020F40F0958005
:1037D00094F8983013F0400F40F0938094F89830AC
:1037E00013F0010F40F09180236B07EE903AA36A2B
:1037F00007EE103A77EE877A17EE903AA362636A83
:1038000007EE103A77EE877AE36A07EE103A77EE22
:10381000877A17EE903A636394F8983013F0100F9C
:1038200077D12046FFF7FCFD2046FFF713FE236902
:103830006361636BA363E26AE263A269E261226B84
:10384000226200EE103ABDEC028B10BDFFF71CFEA9
:103850003DE7F1EE607A5DE7636807EE903A60EE6F
:10386000A77A17EE903A6362A36807EE903A60EE8B
:10387000A77AD4F8903000EE103A67EE807A17EE0F
:10388000903A2363B4F86030022B0FD8E368E26902
:1038900007EE902A70EEE70A07EE903A67EEA00A6C
:1038A000C0EE807A17EE903AE3627AE7E36808EEBA
:1038B000103A04F1620000F007FA28EE008A18EED0
:1038C000103AE3626DE7E26808EE102A9B6807EEA3
:1038D000903A38EE278A04F1620000F0F5F928EEFC
:1038E000008A18EE103AE3625BE72046FFF794FC8B
:1038F00062E72046FFF7CEFC64E72046FFF720FE94
:1039000066E72046FFF752FD68E72046FFF7FCFC1C
:103910006AE72046FFF767FD83E710B52DED028BC0
:103920000446B0EE408A1830FDF7AEF910EE103ABA
:10393000E36120EE088A236A07EE903A30EE277A98
:10394000C8EE070AE36806EE903A67EEA67AC7EE7D
:10395000876A70EEA60A10EE903AE360238E022B7F
:1039600050D8236907EE903A70EEE70AC0EE807AED
:1039700017EE903A6362B4F85C30022B4AD8636A5F
:1039800007EE903AE36A07EE103A77EEC77AE269FB
:1039900007EE102AC7EE877A17EE903AA3622368E3
:1039A00007EE903AE36807EE103A27EE877A6368ED
:1039B00000EE103A636A07EE903A20EE270A77EE9F
:1039C000007AA36800EE103AA36A07EE103A20EEE0
:1039D000070A37EE800A10EE103AC4F88830D4F89F
:1039E0008C3001EE103AF1EE410A00F030F910EEA1
:1039F000103AC4F88830E3682361636AE362BDEC7F
:103A0000028B10BD04F1320000F05EF910EE103AA6
:103A10006362B0E7636A00EE903AE36900EE103A41
:103A200004F15E0000F050F910EE103AA362B6E720
:103A300038B52DED028B0446B0EE408A10EE905A58
:103A40001C30FDF721F910EE103A236218EE103AFF
:103A5000E3606561A38E022B00F29280236907EE7A
:103A6000903A38EE678AC8EE007A17EE903AA36271
:103A7000B4F86030022B00F28D80A36A07EE903A12
:103A8000236B07EE103A77EEC77A226A07EE102A08
:103A9000C7EE877A17EE903AE362236806EE903A13
:103AA000E36806EE103A26EE866A636807EE103A7F
:103AB000A36A06EE903A27EE267A76EE076AA368A6
:103AC00007EE903AE36A07EE103A67EE877A36EE31
:103AD000A77A636907EE903A77EE677A17EE903A25
:103AE000C4F88C30236A07EE103A67EE877A636A6F
:103AF00006EE903A37EE267A87EE870AD4F89430AD
:103B000007EE903A66EEA76AC6EE877A30EE270A8D
:103B100010EE103AC4F88C30D4F8983001EE103A18
:103B2000F1EE410A00F093F810EE103AC4F88C3030
:103B3000B5EEC00AF1EE10FA3ADDB0EE407AA369B4
:103B400007EE903AD4F8983006EE903A67EEA67AEF
:103B5000F4EEC77AF1EE10FA2DD510EE103AC4F853
:103B60009030E3682361A36A236310EE103AC4F82F
:103B70009430D4F8903000EE103ABDEC028B38BD92
:103B8000F0EE480A04F1360000F09EF810EE103A0C
:103B9000A3626DE7A36A00EE903A236A00EE103A42
:103BA00004F1620000F090F810EE103AE36274E75E
:103BB000B1EE407AC3E70023C4F89030D1E710B5E6
:103BC0002DED028B0446B0EE408AF0EE608AB0EE36
:103BD000600A00F53070FFF7A0FEF0EE680AB0EE64
:103BE000480A04F1DC00FFF765FDD4F82A3000EE46
:103BF000903AB0EE480A04F57870FFF719FFD4F850
:103C000080340BB120469847D4F8483300EE103A80
:103C1000D4F8103107EE903A70EE277AD4F86C346D
:103C200000EE103A37EEC00A10EE103AC4F82A300F
:103C3000D4F82E3001EE103AF1EE410A00F007F808
:103C400010EE103AC4F82A30BDEC028B10BDB4EE71
:103C5000E00AF1EE10FA07D4B4EEC10AF1EE10FA60
:103C600004DDB0EE410A7047B0EE600A704770B5EF
:103C70000446018000258570C570057145718E0070
:103C80003046FEF777FBC4F806003046FEF772FBBD
:103C9000C4F80A000023C4F80E30C4F812303246CB
:103CA0002946D4F8060000F055F932462946D4F8E2
:103CB0000A0000F04FF9C4F81A50C4F81E50C4F8B6
:103CC0002250C4F8265070BD00B5D0F8063093EDF0
:103CD000017A784B83ED007A002315E0D0F80620B6
:103CE000591C02EB810CDCED007A02EB830277EECB
:103CF000C77AC2ED007AD0F80A2002EB830302EB08
:103D0000810212681A608BB20288511E8B42E5DB79
:103D1000D0F8061002F18043023B01EB8303D3EDA0
:103D2000007A6FF0404C624401EB820237EE800A69
:103D300082ED000AD0F80A300288624403EB820365
:103D4000C3ED000AD0F80230B0F800C0634502D2DB
:103D50000133C0F802300023C0F81A30C0F81E301A
:103D6000C0F82230C0F82630D0F802309BB2ACEB5D
:103D700003039BB21A463FE0D0F8061001EB820124
:103D8000D1ED007A67EEA77AD0F81AE007EE10EAD4
:103D900077EE877A17EE90EAC0F81AE0D1ED007A54
:103DA000D0F81EE007EE10EA77EE877A17EE90EA79
:103DB000C0F81EE0D1ED007AD0F80A1001EB8201C4
:103DC00091ED007A67EE877AD0F822E007EE10EAEC
:103DD00077EE877A17EE90EAC0F822E0D1ED007A0C
:103DE000D0F8261007EE101A77EE877A17EE901AA1
:103DF000C0F82610013292B29445BDD8D0F82220E6
:103E000007EE102A07EE90CAF8EEE75A67EE256A29
:103E1000D0F81E2006EE102AD0F8262007EE102A31
:103E200026EE077A36EEC77AD0F81A2007EE902AE7
:103E300065EEA77A26EE066A77EEC67A87EE270A3F
:103E400010EE102AC0F80E200022C0F8162023E041
:103E5000D0F8062002EB8302D2ED007A20EE277A1A
:103E6000D0F8122007EE902A77EE277AD0F80A20B1
:103E700002EB830292ED007A77EEC77AF0EEE77AF2
:103E8000D0F8162007EE102A77EE877A17EE902AE0
:103E9000C0F8162001339BB29C45D9D8D0F8162023
:103EA00007EE902AC7EEA57A17EE903AC0F81630C2
:103EB0005DF804FB54580020DFF834D0002103E003
:103EC0000C4B5B58435004310B480C4B42189A4240
:103ED000F6D30B4A02E0002342F8043B094B9A4216
:103EE000F9D3FFF78BF900F011F8FFF72FF97047BE
:103EF0000000022034520008000000203C04002092
:103F00003C0400205C580020FEE7000070B50D4E18
:103F10000D4D761BB61006D0002455F8043B013435
:103F20009847A642F9D1094E094D761B00F03CFF97
:103F3000B61006D0002455F8043B01349847A64239
:103F4000F9D170BD285200082852000830520008EC
:103F500028520008830730B548D0541E002A3FD0AD
:103F6000CAB2034601E0013C3AD303F8012B9D0796
:103F7000F9D1032C2DD9CDB245EA05250F2C45EA00
:103F8000054536D9A4F1100222F00F0C03F1200EE2
:103F9000E6444FEA121C03F1100242E9045542E9DB
:103FA000025510327245F8D10CF1010214F00C0FD9
:103FB00003EB021204F00F0C13D0ACF1040323F056
:103FC00003030433134442F8045B9342FBD10CF027
:103FD00003042CB1CAB21C4403F8012B9C42FBD150
:103FE00030BD64461346002CF4D1F9E7034614466D
:103FF000BFE71A46A446E0E7024B13B1024800F0BF
:1040000005B8704700000000194000080023014671
:104010001A46184600F01AB838B5084B084D5B1B15
:104020009C1007D0043B1D44013C55F804399847C7
:10403000002CF9D1BDE8384000F0BCBE3452000875
:1040400030520008704700BF704700BF2DE9F047AD
:10405000DFF880A00646DAF8000098460F46914641
:10406000FFF7F0FF1A4B1B68D3F8484124B365688B
:104070001F2D26DC5EB96B1C0235DAF80000636088
:1040800044F82570FFF7E0FF0020BDE8F08704EB5F
:1040900085010123C1F88890D4F88821AB401A43E8
:1040A000022EC4F88821C1F80881E4D1D4F88C210B
:1040B0001343C4F88C31DEE703F5A674C3F8484116
:1040C000D5E7DAF80000FFF7BFFF4FF0FF30DCE77D
:1040D0004C4E00083804002010EE103A184A23F025
:1040E000004393421BDDB3F1FF4F02DB30EE400A89
:1040F000704700B583B0684600F060F800F0030038
:104100000128DDED010A9DED000A0CD0022812D035
:1041100070B1012000F040FD03B05DF804FBDFED5D
:10412000090A00F07DB900F037FDB1EE400AF3E76F
:1041300000F076F9F0E700F073F9B1EE400AEBE732
:10414000D80F493F0000000010EE103A194A23F042
:10415000004393421CDDB3F1FF4F02DB30EE400A17
:10416000704700B583B0684600F028F800F00300FF
:104170000128DDED010A9DED000A0ED0022813D0C2
:1041800070B100F04DF9B1EE400A03B05DF804FBE8
:10419000DFED090A002000F0FFBC00F041F9F4E770
:1041A000012000F0F9FCF0E7012000F0F5FCB1EE91
:1041B000400AEAE7D80F493F0000000070B510EE52
:1041C000103A894A23F00044944286B0054670DDD7
:1041D000864A944210EE106A22DC002BDFED847ACE
:1041E000844A24F00F04B0EE407A40F3E480944215
:1041F00070EE677A09BFDFED806A9FED807A9FEDF0
:10420000807A77EEE67A012077EEC76A77EEE67A73
:10421000C5ED006A77EEC77AC5ED017A06B070BDCC
:10422000784A944254DDB4F1FF4F49DAE215863AF8
:10423000A4EBC25307EE903ABDEEE77ADFED726A67
:10424000B8EEC77A77EEC77A8DED037A67EEA67A75
:10425000BDEEE77AB8EEC77A77EEC77A8DED047ACD
:1042600067EEA67AF5EE407AF1EE10FACDED057A1A
:1042700040F09080B5EE407AF1EE10FA14BF0223C0
:104280000123624901910221009103A8294600F00F
:1042900049F9002EC2DA95ED007AD5ED017AB1EE3A
:1042A000477AF1EE677A85ED007AC5ED017A4042F2
:1042B000B4E7002285ED000A4260002006B070BD20
:1042C00070EE407A0020C5ED017AC5ED007AA5E7D1
:1042D00000F0AAFC9FED4E7A9FED456AF6EE007A5B
:1042E000E0EE077A9FED457AFDEEE77A17EE900A49
:1042F000F8EEE76A1F28A6EEC60A66EE877AB1EEE8
:10430000666A1EDC434A411E24F0FF0352F8212056
:10431000934216D030EE677A85ED007A30EE470A88
:10432000002E30EE670A85ED010ABFF677AFB1EED9
:10433000477AB1EE400A85ED007A85ED010A4042E8
:104340006CE730EE677AE21517EE103AC3F3C75305
:10435000C3EBD454082CDFDDDFED277A9FED287AFC
:10436000F0EE405AE6EE275A30EE650AA6EE270A2E
:10437000F0EE407AD6EE877A35EEE77A17EE103A0D
:10438000C3F3C753D21A192A06DCB0EE650A85EDCD
:10439000007AC3E7032374E79FED1F7A9FED1F5A4E
:1043A000B0EE650AA6EE070A75EEC07AE6EE077A69
:1043B000D6EE857AAEE7944270EE277A09BFDFED3C
:1043C0000E6A9FED0E7A9FED0E7A77EEA67A4FF089
:1043D000FF3077EE876A77EEE67AC5ED006A77EE12
:1043E000877AC5ED017A19E7D80F493FE3CB16402C
:1043F000800FC93FD00FC93F00443537434435379C
:1044000008A3852E800F494300008043D04E00084A
:1044100084F9223F504E000800A3852E32318D24AE
:1044200010EE103A23F00043B3F1485F2CDAFDEEB2
:10443000C07A17EE903A002B60D020EE007ADFEDC4
:10444000317A9FED315ADFED315A9FED316ADFED60
:10445000316AA7EE275ADFED307AE7EE055AA7EE6C
:10446000256AE7EE067AE7EE276A67EE266A60EECF
:10447000C00AF6EE007AE7EE260AB7EE000AD7EE9B
:10448000270A30EE600A704720EE007ADFED1D7AD1
:104490009FED1D5ADFED1D5A9FED1D6ADFED1D6A70
:1044A0001E4AA7EE275A9342DFED1B7AE5EE075A24
:1044B000A5EE876AE6EE077AE7EE876A66EE876A18
:1044C000D5DD174A934214DC03F17F4307EE903A9F
:1044D000B7EE006A36EE676A60EEC00AF6EE005A82
:1044E000D7EE257AE7EE260A77EEE00A36EE600A86
:1044F0007047B6EE076AF5EE027AEDE7B7EE000A0E
:10450000704700BF4ED747ADF6740F317CF293B4BD
:10451000010DD037ABAA2A3D610BB6BA9999993EE5
:104520000000483F2DE9F04F2DED048BDBB01C4619
:1045300003930691A24B6899089253F82150111DDC
:10454000824604F1FF38C0F2A382D31E48BF131D78
:10455000DB1002930133DB000793DDE907239B1A8D
:104560000593029B15EB0801A3EB080316D4013158
:104570009FED947A699819441EAA002BA4BF50F8A5
:10458000234007EE904A03F10103ACBFF8EEE77A4F
:10459000F0EE477A8B42E2EC017AEED1002DC0F2C8
:1045A000E782039B1EAA02EB830446AE4FEA830C0C
:1045B0004046EF180AEB8301B8F1000FDFED817A76
:1045C00009DB22465346F3EC016A32ED017A8B4255
:1045D000E6EE877AF7D10130B842E6EC017A04F1D1
:1045E0000404E9D109AB0AAF03EB850907EB8503A6
:1045F000083B9FED769ADFED748A059804930AEBE9
:104600000C0446AE00955AAB03EB8503002D13ED69
:10461000140A4FEA850B16DD06EB85033A4660EE79
:10462000097AB0EE407AFDEEE77A73ED016AF8EEB2
:10463000E77AB342A7EEE87A37EEA60ABDEEC77A6C
:10464000A2EC017AEBD1019000F03CFBB0EE408A85
:10465000B4EE000A28EE000A00F0EEFAF2EE007A5C
:10466000A0EE678A01980028FDEEC89AF8EEE97A74
:1046700038EE678A79DD05F1FF3EC0F1080357F88F
:104680002E1041FA03FC0CFA03F3CB1AC0F1070217
:1046900019EE901A43FA02F26144002A47F82E30CC
:1046A00009EE901A69DCB5EE408AF1EE10FA40F09E
:1046B000C080009B05F1FF3B5B4510DC05F18043AA
:1046C000013B07EB83030021944653F804294B4533
:1046D00041EA0201F9D16246002940F0F280009BD4
:1046E000013B57F82330002B40F0E780049B4FF04C
:1046F000010C53F804290CF1010C002AF9D06B1CB1
:10470000AC449E46039A5119029A02EB030B0BF13B
:10471000804B699A0BF1FF3B06EB83051EAB02EB66
:104720008B0B03EB8101DBED017A9FED267AF8EE2E
:10473000E77AB8F1000F0BF1040BC1ED007A0A46DD
:1047400001F1040109DB534601E072ED017AF3EC5B
:10475000016AA342A6EEA77AF7D10EF1010EE64553
:10476000A5EC017ADFDD65464DE740F09C806B1ECD
:1047700057F82320D211002A95DD19EE903A002D2A
:1047800003F1010309EE903A40F39881396800295A
:104790007FD1012D26D03B464FF0010C53F8041F6A
:1047A00000297AD00CF10103C1F580719D4247F8D0
:1047B0002C1016DD57F82310BB4407EB83030AE0E7
:1047C0001452000800000000000080430000803BFD
:1047D0000000C93F1968C1F1FF0143F8041B5B45A4
:1047E000F8D1012100280CDD012800F048810228C1
:1047F00007D105F1FF3C57F82C3003F03F0347F891
:104800002C30022A7FF44FAFB7EE000A30EE488A10
:1048100000293FF448AF0992019000F053FA38EEB6
:10482000408A099A0198B5EE408AF1EE10FA3FF4F9
:1048300040AF0292DDE90732B0EE480A981A0195BE
:10484000009D00F03FFA1FED207AB4EEC70AF1EEAA
:1048500010FADDE90132C0F259815FED247A059941
:1048600060EE277A0831FDEEE77A0591F8EEE77AF7
:1048700003F1010BA7EEC70AFDEEE77ABDEEC00A11
:1048800010EE101A47F8231017EE903A47F82B3025
:104890002EE001234FF0000C86E70CF1010CAC4533
:1048A0007FF47CAF9EE7F6EE007AB4EEE78AF1EE95
:1048B00010FA80F2F2800022F5E66B1C9E469C46C0
:1048C00020E70599A1F1080057F82B1005902B4619
:1048D000009D69B903F18043023B07EB8303014666
:1048E00053F804090BF1FF3B08390028F8D0059173
:1048F00005980092B7EE000A00F0E4F9BBF1000F52
:10490000009AC0F228814FEA8B0E46AB03EB0E06ED
:104910000EF1040C1FED537A07EB0C03311D73ED00
:10492000017AF8EEE77ABB4267EE807A20EE070A5A
:1049300061ED017AF3D1002D1FED5B6A4FF00004A9
:1049400020DB9348DFED937AB0EE467A31460023C0
:1049500003E09C4208DBB0EC017AF1EC016A013320
:104960009D42E6EE877AF4DA5AAB03EB8403A34563
:1049700043ED287AA6F1040604F1010305D0002DC9
:104980001C46DEDADFED837AEEE7689902291CDC4B
:10499000002900F395800FD132ABDFED7E7A9C4485
:1049A0003CED017A634577EE877AF9D10AB1F1EEF1
:1049B000677A069BC3ED007A19EE903A03F0070080
:1049C0005BB0BDEC048BBDE8F08F689B032BF3D18B
:1049D000BBF1000F00F0D4800EF5B4736B4432A924
:1049E00013ED287A01EB8B0373ED017AF0EE476A41
:1049F00037EE277A994277EEC77A83ED007A77EE21
:104A0000A67AC3ED017AEFD1BBF1010F40F3B88074
:104A10000BF1804B0EF5B4730BF1FF3B0DEB030E66
:104A20004FEA8B0B0BF104031EED287A0B4433A8DD
:104A300073ED017AF0EE476A37EE277A984277EE07
:104A4000C77A83ED007A77EEA67AC3ED017AEFD1CB
:104A50000BF1080BDFED4F7A01EB0B03083133ED5F
:104A6000017A994277EE877AF9D1002A56D10699D0
:104A7000329A339B0A604B60C1ED027A9CE705F1E4
:104A8000FF3C57F82C3003F07F0347F82C30B8E692
:104A900008230793002302935FE519EE903A002D57
:104AA00003F1010309EE903AC8BF02223FF76EAE50
:104AB000F7EE007A37EEC88A0222F4E5002191E68B
:104AC00032A9DFED347A01EB830333ED017A9942A9
:104AD00077EE877AF9D19DED327A8ABB069BBBF1DE
:104AE000000FC3ED007A77EE677A0BDD33A901235F
:104AF000B1EC017A01339B4577EE877AF8DA0AB197
:104B0000F1EE677A069BC3ED017A55E7BDEEC00A68
:104B10009B4610EE101A47F82310E9E6DDED326AE5
:104B20009DED337A069BF1EE666AB1EE477AF1EEBF
:104B3000677AC3ED006A83ED017AC3ED027A3BE741
:104B4000069BF1EE676ABBF1000F77EE677AC3ED63
:104B5000006ACBDCD4E7689B022B0DDC002B14DC55
:104B60007FF42AAFDFED0B7A002A3FF422AF1EE775
:104B7000039B4FEA830C35E5689B032B7FF41CAF46
:104B8000DFED047A002AC9D171E7DFED027AA2E7EE
:104B9000EC5100080000000010EE103A23F0004332
:104BA000B3F1485F04DAFDEEC07A17EE903A5BB3DA
:104BB00060EE007A9FED157ADFED155A9FED156ACC
:104BC000DFED156AE7EE875A9FED147AA5EEA76A26
:104BD00020EE275AE6EE276AA6EEA77A30B9DFED77
:104BE000106AE7EE876AA6EE850A704727EE457AD7
:104BF000F6EE006AA0EEA67ADFED0A6AD7EE270A83
:104C0000E5EE260A30EE600A704700BFD3C92E2FAA
:104C1000342FD7B21BEF3836010D50B98988083CC4
:104C2000ABAA2ABEABAA2A3E10EE103A23F00043EC
:104C300000EE103A704700BF10EE102AC2F3C753BF
:104C40007F3B162B22F0004128DC002B18DB1A4991
:104C500019410A4221D0DFED197A70EE277AF5EE7C
:104C6000C07AF1EE10FA18DD002A04DA4FF40000E1
:104C700040FA03F31A4422EA010300EE103A7047A7
:104C8000DFED0E7A70EE277AF5EEC07AF1EE10FACB
:104C900003DD002A08DB9FED0A0A7047B1F1FF4FE0
:104CA000FBD330EE000A7047FFEE007A002918BFF0
:104CB000B0EE670A704700BFFFFF7F00CAF249717C
:104CC0000000000082B08DED010A019B33F000422C
:104CD0002AD0B2F1FF4F23D213F0FF4F28D19DED20
:104CE000017ADFED2A7A2A4B67EE277A9842CDEDDA
:104CF000017A37DB019BC3F3C752193A0244FE2AFB
:104D00001ADD9FED240A9FED247A019B002BF0EE23
:104D1000407AB8BFB0EE470A20EE270A02B07047CB
:104D200030EE000A02B070479DED010A02B07047F4
:104D3000D20D0244FE2AE4DC002A0BDC12F1160F2D
:104D400017DA4CF250339842DBDC9FED140A9FEDEA
:104D5000147ADAE723F0FF4343EAC25300EE103A35
:104D600002B070479FED0D0ADDED017A27EE800A53
:104D7000D8E7193223F0FF4343EAC253DFED097A43
:104D800007EE103A27EE270ACCE700BF0000004CE0
:104D9000B03CFFFFCAF24971CAF249F16042A20D6C
:104DA0006042A28D00000033F8B500BFF8BC08BC1B
:104DB0009E467047F8B500BFF8BC08BC9E467047D9
:104DC0001C4E00081D0B0008000000000000000041
:104DD0000001000000000000000000002C4E000850
:104DE000490A0008FDFF000000000000000100006B
:104DF0000000000000000000344E0008652F00088D
:104E0000FDFF000000000000800000000000000026
:104E10000000000049444C45000000005472616EDF
:104E2000736D697373696F6E00000000436861738E
:104E300073697300446574656374000000000000CA
:104E4000000000000102030406070809100000200A
:104E5000000FC93F000F494000CB9640000FC940EA
:104E60000053FB4000CB164100ED2F41000F49419C
:104E70000031624100537B41003A8A4100CB9641A8
:104E8000005CA34100EDAF41007EBC41000FC94171
:104E900000A0D5410031E24100C2EE410053FB4188
:104EA00000F20342003A0A420083104200CB16424D
:104EB00000141D42005C234200A5294200ED2F4250
:104EC00000363642007E3C4200C74242000F494253
:104ED000A2000000F9000000830000006E00000046
:104EE0004E000000440000001500000029000000F2
:104EF000FC0000002700000057000000D100000067
:104F0000F500000034000000DD000000C0000000DB
:104F1000DB00000062000000950000009900000026
:104F20003C00000043000000900000004100000031
:104F3000FE0000005100000063000000AB00000014
:104F4000DE000000BB000000C500000061000000A2
:104F5000B7000000240000006E0000003A000000CE
:104F6000420000004D000000D2000000E000000000
:104F700006000000490000002E000000EA000000CA
:104F800009000000D1000000920000001C00000099
:104F9000FE0000001D000000EB0000001C000000EF
:104FA000B100000029000000A70000003E00000042
:104FB000E80000008200000035000000F50000005D
:104FC0002E000000BB000000440000008400000030
:104FD000E90000009C0000007000000026000000B6
:104FE000B40000005F0000007E00000041000000EF
:104FF0003900000091000000D600000039000000D8
:10500000830000005300000039000000F40000009D
:105010009C000000840000005F0000008B00000086
:10502000BD000000F9000000280000003B00000067
:105030001F000000F800000097000000FF000000C3
:10504000DE00000005000000980000000F000000D6
:10505000EF0000002F000000110000008B00000096
:105060005A0000000A0000006D0000001F00000050
:105070006D000000360000007E000000CF00000040
:1050800027000000CB00000009000000B70000006E
:105090004F000000460000003F00000066000000D6
:1050A0009E0000005F000000EA0000002D000000EC
:1050B0007500000027000000BA000000C7000000D3
:1050C000EB000000E5000000F10000007B000000A4
:1050D0003D0000000700000039000000F70000005C
:1050E0008A0000005200000092000000EA00000068
:1050F0006B000000FB0000005F000000B10000003A
:105100001F0000008D0000005D000000080000008E
:1051100056000000030000003000000046000000C0
:10512000FC0000007B0000006B000000AB000000F2
:10513000F0000000CF000000BC00000020000000D4
:105140009A000000F4000000360000001D0000007E
:10515000A9000000E30000009100000061000000D1
:105160005E000000E60000001B00000008000000D8
:105170006500000099000000850000005F0000004D
:1051800014000000A00000006800000040000000C3
:105190008D000000FF000000D8000000800000002B
:1051A0004D000000730000002700000031000000E7
:1051B0000600000006000000150000005600000078
:1051C000CA00000073000000A8000000C900000031
:1051D00060000000E20000007B000000C000000052
:1051E0008C0000006B0000000000C93F0000F03997
:1051F0000000DA370000A2330000842E0000502B9C
:105200000000C2270000D0220000C41F0000C61BFF
:10521000000044170400000007000000090000001F
:08522000E0AFFF7F0100000078
:08522800F93F0008B501000880
:0452300091010008E0
:105234000100000010000000AAAAAAAA0024F40099
:1052440000000000FC02002064030020CC030020C6
:10525400000000000000000000000000000000004A
:10526400000000000000000000000000000000003A
:10527400000000000000000000000000000000002A
:10528400000000000000000000000000000000001A
:10529400000000000000000000000000000000000A
:1052A40000000000000000000000000000000000FA
:1052B40000000000000000000000000000000000EA
:1052C40000000000000000000000000000000000DA
:1052D40000000000000000000000000000000000CA
:1052E40000000000000000000100000000000000B9
:1052F4000E33CDAB34126DE6ECDE05000B0000007E
:105304000000000000000000000000000000000099
:105314000000000000000000000000000000000089
:105324000000000000000000000000000000000079
:105334000000000000000000000000000000000069
:0C5664000000000000000000585800206A
:0400000508003EB9F8
:00000001FF
