:020000040800F2
:100000000000022095330008193100081B31000858
:100010001D3100081F3100082131000800000000D8
:10002000000000000000000000000000F11C0008BB
:100030002331000800000000911D00082531000850
:10004000E5330008E5330008E5330008E533000830
:10005000E5330008E5330008E5330008E533000820
:10006000E5330008E5330008E5330008E533000810
:10007000E5330008E5330008E5330008E533000800
:10008000E5330008E5330008E5330008E5330008F0
:100090003D310008E5330008E5330008E53300088A
:1000A000E5330008E5330008E5330008E5330008D0
:1000B000E5330008E5330008E5330008E5330008C0
:1000C000E5330008E5330008E5330008E5330008B0
:1000D000E5330008E5330008E5330008E5330008A0
:1000E000E5330008E5330008E5330008E533000890
:1000F000E5330008E5330008E5330008E533000880
:10010000E5330008E5330008E5330008E53300086F
:10011000E5330008E5330008E5330008E53300085F
:10012000E5330008E5330008E5330008E53300084F
:10013000E5330008E5330008E5330008E53300083F
:100140004D310008E5330008E5330008E5330008C9
:10015000E5330008E5330008E5330008E53300081F
:10016000E5330008E5330008E5330008E53300080F
:10017000E5330008E5330008E5330008000000001F
:08018000E5330008E533000837
:1001900010B5054C237833B9044B13B10448AFF3C1
:1001A00000800123237010BD3C04002000000000EB
:1001B000B435000808B5034B1BB103490348AFF33E
:1001C000008008BD0000000040040020B435000895
:1001D00053B94AB9002908BF00281CBF4FF0FF31AE
:1001E0004FF0FF3000F074B9ADF1080C6DE904CEAA
:1001F00000F006F8DDF804E0DDE9022304B0704702
:100200002DE9F047089D04468E46002B4DD18A42C9
:10021000944669D9B2FA82F252B101FA02F3C2F1FC
:10022000200120FA01F10CFA02FC41EA030E94408D
:100230004FEA1C48210CBEFBF8F61FFA8CF708FBAE
:1002400016E341EA034306FB07F199420AD91CEB86
:10025000030306F1FF3080F01F81994240F21C81B8
:10026000023E63445B1AA4B2B3FBF8F008FB103300
:1002700044EA034400FB07F7A7420AD91CEB040435
:1002800000F1FF3380F00A81A74240F20781644405
:10029000023840EA0640E41B00261DB1D44000238A
:1002A000C5E900433146BDE8F0878B4209D9002DEE
:1002B00000F0EF800026C5E9000130463146BDE878
:1002C000F087B3FA83F6002E4AD18B4202D38242E2
:1002D00000F2F980841A61EB030301209E46002D91
:1002E000E0D0C5E9004EDDE702B9FFDEB2FA82F2E6
:1002F000002A40F09280A1EB0C014FEA1C471FFA44
:100300008CFE0126200CB1FBF7F307FB131140EA2A
:1003100001410EFB03F0884208D91CEB010103F1F7
:10032000FF3802D2884200F2CB804346091AA4B2B9
:10033000B1FBF7F007FB101144EA01440EFB00FE8D
:10034000A64508D91CEB040400F1FF3102D2A645F2
:1003500000F2BB800846A4EB0E0440EA03409CE791
:10036000C6F12007B34022FA07FC4CEA030C20FA3E
:1003700007F401FA06F31C43F9404FEA1C4900FA5E
:1003800006F3B1FBF9F8200C1FFA8CFE09FB1811DB
:1003900040EA014108FB0EF0884202FA06F20BD94E
:1003A0001CEB010108F1FF3A80F08880884240F29E
:1003B0008580A8F102086144091AA4B2B1FBF9F0E2
:1003C00009FB101144EA014100FB0EFE8E4508D9DD
:1003D0001CEB010100F1FF346CD28E456AD9023862
:1003E000614440EA0840A0FB0294A1EB0E01A14247
:1003F000C846A64656D353D05DB1B3EB080261EBB5
:100400000E0101FA07F722FA06F3F1401F43C5E98E
:10041000007100263146BDE8F087C2F12003D840C4
:100420000CFA02FC21FA03F3914001434FEA1C4706
:100430001FFA8CFEB3FBF7F007FB10360B0C43EAF8
:10044000064300FB0EF69E4204FA02F408D91CEBA8
:10045000030300F1FF382FD29E422DD902386344A6
:100460009B1B89B2B3FBF7F607FB163341EA034146
:1004700006FB0EF38B4208D91CEB010106F1FF3895
:1004800016D28B4214D9023E6144C91A46EA00468C
:1004900038E72E46284605E70646E3E61846F8E61E
:1004A0004B45A9D2B9EB020864EB0C0E0138A3E767
:1004B0004646EAE7204694E74046D1E7D0467BE748
:1004C000023B614432E7304609E76444023842E7C0
:1004D000704700BF70B52DED028B002628E0DFEDE0
:1004E000232A9FED238A4FF4916404FB06F505F15E
:1004F000D800204C204411220121F0EE624A9FEDE9
:100500001E4ADFED1E3A9FED1E3AB2EE0E2AF2EEC3
:10051000001AB7EE001AF0EE480A9FED1A0A0430EE
:1005200002F02AFE2C4418EE103AC4F82E300136A0
:10053000032ED4DD9FED0D1ADFED130A47220521AE
:10054000DFED124AB0EE414ADFED0C3AB0EE603A10
:10055000F0EE412AB0EE412AF1EE041A9FED080AAE
:100560000B4802F009FEBDEC028B70BD00000000DC
:100570000000FA45580400206F12833A0000C84278
:100580000000FA4300007A46000096430AD7233C55
:100590007816002010B588B00F4B00221A705A70E0
:1005A0009A70DA701A715A719A71DA710B4C07935A
:1005B0004FF400730693EC4604F1100EBEE80F00F2
:1005C000ACE80F009EE803008CE8030094E80F00FD
:1005D00000F0B6F908B010BD2417002068550020BF
:1005E00000B583B0FFF776FF01F09BFA01900AE0B7
:1005F0004FF47A631A461946184602F043FB0A2163
:1006000001A801F0D4FA034B5B7A012BF0D0FFF77D
:10061000C1FFF4E750550020724B00221A6093F896
:10062000351062F3000183F8351093F835100A2075
:1006300060F3870183F8351093F83810642183F84C
:10064000381093F8391083F8392093F8361083F86E
:10065000362093F8371083F8372093F8311083F859
:10066000312093F8321083F8322093F8331083F856
:10067000332093F8341083F8342093F8351041F088
:10068000020183F8351093F8471062F3000183F8F4
:10069000471093F8471060F3870183F84710996C6F
:1006A000C0F2C8019964996C62F30F01996493F8E0
:1006B000431083F8432093F8441083F8442093F8C0
:1006C000451083F8452093F8461083F8462093F8A8
:1006D000471041F0020183F84710D98F62F30001FF
:1006E000D987D98F092060F38701D987B3F84010E3
:1006F000C9B241F44841A3F8401093F8421083F87E
:100700004220D98FC9B2D987B3F8401021F0FF0138
:10071000A3F84010598F5A87998F9A87D88F40F045
:100720000201D987B3F8621062F30001A3F86210E6
:10073000B3F86210082060F38701A3F86210B3F8E1
:100740006410C9B241F44841A3F8641093F86610EC
:1007500083F86620B3F86210C9B2A3F86210B3F848
:10076000641021F0FF01A3F86410B3F85E10A3F841
:100770005E20B3F86010A3F86020B3F8620040F088
:100780000201A3F8621029E0501C00EBC0031549D8
:100790000B44197A6FF3000119720232197A62F36D
:1007A00087011972DA7A00226FF03701D972197B4A
:1007B0001A73597A5A72997A9A7293F804C01A7114
:1007C00093F805C05A7193F806C09A7193F807C060
:1007D000DA711A7A42F002021A720246052AD3DD51
:1007E000704700BF2C17002000EBC002084B1344D9
:1007F0001B7A13F0020F00D1704710B5044600F0C9
:1008000037F904EBC404024B1C44606010BD00BF08
:100810002C17002038B5FFF7FFFE642001F0C0F967
:1008200040E004EBC402214B13441A7A6FF3000238
:100830001A7201340A2C2FDC00F01AF904EBC402FE
:100840001A4B13445A68801A80B2A3F809001B7A25
:1008500013F0020FE5D004EBC402144B1344B3F8B9
:100860000920B3F80B309A42DBD904EBC4020F4BDA
:1008700013441A7A42F001021A721B7AB5EB930FF5
:10088000D7DA0A4A04EBC40313441D7AAD080433D3
:10089000136082F86740CCE7044B00221A603220D4
:1008A00001F07EF900242546C4E700BF2C17002084
:1008B00008B54FF40061044800F020FE4FF4FA70D0
:1008C00001F06EF9F5E700BF001C024000B58BB0E7
:1008D000012208920023069307920093019302934A
:1008E0000393059304936946134800F06DF90028BB
:1008F000F9D1114800F004FA0028FAD102210E487B
:1009000000F04FFB0028F9D10E23099305936946A7
:100910000A4800F059F90028F9D1084800F0F0F928
:100920000028FAD10221054800F03BFB0028F9D14C
:100930000BB05DF804FB00BF685500209055002007
:1009400084B000B583B00DF1100C8CE80F000F9847
:100950000C4A0E9B136000239360D3600821116141
:1009600003E0C15C084AD1540133072BF9DD01AB28
:10097000054A044904A800F0F1F903B05DF804EB5E
:1009800004B070479C170020941700200C4AD2F83E
:10099000FC3043F08073C2F8FC300A4B00215960F0
:1009A0001A6842F001021A60074B03FB00F0074B84
:1009B0001860074B1960074B00221A60704700BF90
:1009C00000ED00E0001000E040420F00B4170020EE
:1009D000B8170020BC17002010B504460E4B18783D
:1009E0004FF47A73B3FBF0F30C4A1068B0FBF3F0EA
:1009F00000F072FC68B90F2C01D901200AE0002236
:100A000021464FF0FF3000F021FC054B1C60002018
:100A100000E0012010BD00BF000000200C000020FD
:100A20000400002008B50B4B1A6842F400721A60EB
:100A30001A6842F480621A601A6842F480721A607E
:100A4000032000F0F1FB0F20FFF7C6FF02F042FB8E
:100A5000002008BD003C0240034A1168034B1B788C
:100A60000B441360704700BFC01700200000002037
:100A7000014B1868704700BFC0170020002800F025
:100A8000A18038B5044690F82030D3B122681368AD
:100A900023F002031360FFF7EBFF054623685A6853
:100AA00012F0020F10D0FFF7E3FF401B0A28F5D920
:100AB000636A43F400336362052384F82030012025
:100AC00038BD02F049F9E1E71A6842F001021A6004
:100AD000FFF7CEFF054623685A6812F0010F0DD1CB
:100AE000FFF7C6FF401B0A28F5D9636A43F40033B9
:100AF0006362052384F820300120E1E7227E012A89
:100B00003DD01A6822F080021A60637E012B3BD030
:100B10002268136823F040031360A37E012B39D0B1
:100B20002268136823F020031360E37E012B37D083
:100B30002268136843F010031360237F012B35D024
:100B40002268136823F008031360637F012B33D0FE
:100B50002268136823F004031360A368E268134358
:100B600022691343626913436268013A216813439F
:100B7000CB6100206062012384F82030A0E71A686E
:100B800042F080021A60C0E72268136843F0400315
:100B90001360C2E72268136843F020031360C4E7C0
:100BA0002268136823F010031360C6E722681368F5
:100BB00043F008031360C8E72268136843F0040396
:100BC0001360CAE70120704790F82030013BDBB288
:100BD000012B05D9436A43F4802343620120704707
:100BE00030B5464BD3F8002242F00102C3F8002290
:100BF000D3F8002222F47C52C3F80022D3F800225A
:100C0000486A42EA0022C3F800224A6902F01F0241
:100C1000012000FA02F2D3F81C026FEA020C20EA6B
:100C20000200C3F81C02CB69C3B9344BD3F80C02E1
:100C30000CEA0000C3F80C028C884869CD6844EACD
:100C40000544483043F830408C68088840EA044046
:100C50004C6904F1480E03EBCE035860CB69012BBD
:100C60001ED08B69002B33D12448D0F804320CEA13
:100C70000303C0F804320B698BBB2048D0F8143250
:100C80000CEA0303C0F814320B6A012B2ED01B4A66
:100C9000D2F8003223F00103C2F80032002030BD48
:100CA000164BD3F80C021043C3F80C028C88486929
:100CB0000D6844EA0544483043F8304088894C695F
:100CC0008D6840EA0540483403EBC4035860C8E728
:100CD0000A48D0F804321343C0F80432CBE707487F
:100CE000D0F814321343C0F81432CDE70349D1F8D9
:100CF0001C321A43C1F81C22C9E700BF006400403F
:100D000070B5044690F82050EDB2012D06D0436A2C
:100D100043F4002343620125284670BD022380F876
:100D200020300268136823F001031360FFF7A0FE70
:100D3000064623685B6813F0010F0CD0FFF798FE9E
:100D4000831B0A2BF5D9636A43F4003363620523DE
:100D500084F82030E0E700256562DDE730B590F8E3
:100D600020C00468A4680CF1FF3C5FFA8CFCBCF165
:100D7000010F6BD814F0E05F62D0C4F3016CBCF1DA
:100D8000020F05D9436A43F400034362012062E085
:100D9000012404FA0CF41C608B68002B3DD10D6813
:100DA000CB68046843EA45550CF118031B01E55074
:100DB00003680C690CF1180E03EB0E135C600B7DDD
:100DC000012B35D0D17993791B0443EA0163517922
:100DD00043EA012314790168234301EB0C11C1F8A4
:100DE0008C31D17893781B0443EA0163517843EA4C
:100DF0000123117802680B4302EB0C12C2F8883110
:100E000002680CF1180C4FEA0C1C52F80C3043F03D
:100E1000010342F80C3000201DE04C6843EAC40393
:100E2000CC6823430CF11804240105682B51BFE75B
:100E3000036803EB0E13596841F480715960C1E7F0
:100E4000436A43F400134362012004E0436A43F41D
:100E500080234362012030BD90F820C00CF1FF3C9C
:100E60005FFA8CFCBCF1010F00F2958030B451B9EF
:100E70000468E46814F0030F10D1436A43F40013CC
:100E80004362012077E00468246914F0030F05D160
:100E9000436A43F40013436201206CE001F11B0438
:100EA000240105682C5904F004049460002C64D1DA
:100EB00001F11B04240105682C59640D14600468B9
:100EC00001F11B0C4FEA0C1C54F80C4004F0020416
:100ED000D46004686444646804F00F041461046816
:100EE00064446468C4F307249461046864446468D7
:100EF000240C5461026802EB0112D2F8B8211A7076
:100F0000026802EB0112D2F8B821C2F307225A702C
:100F1000026802EB0112D2F8B821C2F307429A70BC
:100F2000026802EB0112D2F8B821120EDA700268E0
:100F300002EB0112D2F8BC211A71026802EB011215
:100F4000D2F8BC21C2F307225A71026802EB0112E7
:100F5000D2F8BC21C2F307429A71026802EB011277
:100F6000D2F8BC21120EDA7179B90268D36843F065
:100F70002003D360002030BC704701F11B04240122
:100F800005682C59E408546099E70268136943F036
:100F900020031361EEE7436A43F480234362012098
:100FA000704790F82030013BDBB2012B05D9436A32
:100FB00043F4802343620120704702685369194358
:100FC0005161002070477047704770477047704705
:100FD00070477047704770477047704770472DE9FA
:100FE000F84F054603685C69D3F804809F68D3F81E
:100FF0000CB0D3F810A0D3F8189014F001063BD031
:1010000017F0010616D001229A6017F0020F08D1DE
:1010100017F0040F0CD117F0080606D04FF48056D5
:1010200008E0FFF7D0FF002604E0FFF7CFFF01E064
:101030004FF4006617F4807F0DD02B684FF4807258
:101040009A6017F4007F40F0868017F4806F00F0FC
:10105000868046F4005617F4803F0DD02B684FF47D
:1010600080329A6017F4003F40F0838017F4802F9D
:1010700000F0838046F4004614F0080F07D01BF000
:10108000100F04D046F400762B681022DA6014F0BA
:10109000040F02D01BF0080F79D114F0020F04D016
:1010A0002B68DB6813F0030F78D114F0400F07D0E2
:1010B0001AF0100F04D046F480662B6810221A61D3
:1010C00014F0200F02D01AF0080F6BD114F0100F9B
:1010D00004D02B681B6913F0030F6AD114F4003F8E
:1010E00002D018F0100F68D114F4803F02D018F02D
:1010F000080F69D114F4004F7AD018F0040F74D09F
:1011000014F4807F04D019F0010F01D046F00106DD
:1011100014F4007F04D019F0020F01D046F002064B
:1011200014F4806F04D019F0040F01D046F00406C7
:1011300014F4006F59D019F0700956D0B9F1400F6E
:1011400065D058D8B9F1200F5ED0B9F1300F42D137
:1011500046F0200644E02846FFF736FF7BE717F409
:10116000006F02D046F4804675E72846FFF72FFF50
:1011700071E72846FFF729FF7EE717F4002F02D01A
:1011800046F4803678E72846FFF722FF74E72B689D
:101190000822DA602846FFF71CFF7EE7284601F0A8
:1011A000B3FC82E72B6808221A612846FFF713FF79
:1011B0008CE72846FFF70EFF90E72B6810225A6055
:1011C0002846FFF709FF8FE72B6808225A60284658
:1011D000FFF703FF8EE7B9F1100F01D146F00806C3
:1011E0002A68936923F0700393612B6804225A6084
:1011F0009EB9BDE8F88FB9F1500F0BD0B9F1600F6F
:10120000EED146F48076EBE746F01006E8E746F0CC
:101210004006E5E746F08006E2E76B6A1E436E6231
:101220002846FFF7DBFEE4E7074AD36823F4E063D0
:101230001B041B0C000200F4E060034343F0BF6397
:1012400043F40033D360704700ED00E000B5194B64
:10125000DB68C3F30223C3F1070CBCF1040F28BF02
:101260004FF0040C03F1040EBEF1060F18D9033B36
:101270004FF0FF3E0EFA0CFC21EA0C0199400EFAE9
:1012800003F322EA0303194300280BDB0901C9B267
:1012900000F1604000F5614080F800135DF804FB48
:1012A0000023E5E700F00F000901C9B2024B195411
:1012B000F4E700BF00ED00E014ED00E0002807DBDC
:1012C00000F01F02400901239340024A42F82030F7
:1012D000704700BF00E100E00138B0F1807F0BD221
:1012E0004FF0E0235861054AF02182F823100020D6
:1012F000986107221A6170470120704700ED00E0F5
:1013000058B110B5044643791BB101236371002025
:1013100010BD037101F0C0FDF7E701207047000028
:1013200000230F2B00F2DA80F0B583B03AE00722F9
:1013300000E00022AA4032430234694D45F82420DF
:10134000684A14686FEA0C0224EA0C054E6816F429
:10135000803F01D04CEA0405624C2560646802EAD3
:1013600004054E6816F4003F01D04CEA04055D4CBC
:101370006560A46802EA04054E6816F4801F01D077
:101380004CEA0405574CA560E46822404D6815F40A
:10139000001F01D04CEA0402524CE26001330F2BD3
:1013A00000F29A8001229A400C6804EA020C32EAA8
:1013B0000404F3D14C68651E012D03D9112C01D012
:1013C000122C12D185685E000324B44025EA04057E
:1013D000CC68B4402C438460456825EA02054C681B
:1013E000C4F300129A402A434260C5684FEA430E94
:1013F000032404FA0EF4E24325EA04058C6804FA97
:101400000EF42C43C4604C68022C01D0122C0FD176
:10141000DD08083550F8257003F00704A6000F24F6
:10142000B44027EA04070C69B4403C4340F8254027
:10143000046814404A6802F0030202FA0EF22243E2
:1014400002604A6812F0805FA8D000220192264A0A
:10145000546C44F480445464526C02F4804201920F
:10146000019A9C08A51C1E4A52F8256003F003024D
:1014700095000F22AA4026EA02061C4A90423FF439
:1014800058AF02F5806290421AD002F58062904215
:1014900018D002F58062904216D002F58062904228
:1014A00014D002F58062904212D002F58062904220
:1014B00010D002F5806290423FF439AF082239E73C
:1014C000012237E7022235E7032233E7042231E71E
:1014D00005222FE706222DE703B0F0BD704700BFBD
:1014E00000380140003C014000380240000002404A
:1014F0000AB181617047090481617047436931EA2B
:10150000030301D0816170470904816170470000C5
:10151000002800F0DA8170B582B00446036813F049
:10152000010F3BD09F4B9B6803F00C03042B2CD086
:101530009C4B9B6803F00C03082B21D06368B3F528
:10154000803F4FD0B3F5A02F52D0964B1A6822F4AB
:1015500080321A601A6822F480221A606368002BB5
:1015600050D0FFF785FA05468E4B1B6813F4003FF9
:1015700014D1FFF77DFA401B6428F5D90320ABE1B5
:10158000884B5B6813F4800FD8D0864B1B6813F42C
:10159000003F03D06368002B00F09981236813F0AB
:1015A000020F54D07F4B9B6813F00C0F3ED07D4B45
:1015B0009B6803F00C03082B33D0E368002B68D042
:1015C000794B01221A60FFF753FA0546754B1B68E9
:1015D00013F0020F54D1FFF74BFA401B0228F5D944
:1015E000032079E16F4A136843F480331360B5E751
:1015F0006C4B1A6842F480221A601A6842F48032F6
:101600001A60ABE7FFF734FA0546664B1B6813F424
:10161000003FC3D0FFF72CFA401B6428F5D9032004
:101620005AE1604B5B6813F4800FC6D15D4B1B68B9
:1016300013F0020F03D0E368012B40F04A81594AAE
:10164000136823F0F803216943EAC1031360236898
:1016500013F0080F42D063696BB3534B0122C3F8F8
:10166000802EFFF705FA05464E4B5B6F13F0020F15
:1016700034D1FFF7FDF9401B0228F5D903202BE1F7
:10168000484A136823F0F803216943EAC103136051
:10169000DDE7454B00221A60FFF7EAF90546414BAA
:1016A0001B6813F0020FD2D0FFF7E2F9401B0228AB
:1016B000F5D9032010E13C4B0022C3F8802EFFF740
:1016C000D7F90546374B5B6F13F0020F06D0FFF7D3
:1016D000CFF9401B0228F5D90320FDE0236813F061
:1016E000040F77D02F4B1B6C13F0805F33D1002396
:1016F00001932C4B1A6C42F080521A641B6C03F05D
:1017000080530193019B0125284B1B6813F4807FB4
:1017100023D0A368012B34D0052B38D0214B1A6F6E
:1017200022F001021A671A6F22F004021A67A368F6
:10173000002B3DD0FFF79CF906461A4B1B6F13F0A8
:10174000020F46D1FFF794F9801B41F2883398428B
:10175000F3D90320C0E00025D6E7144A136843F408
:1017600080731360FFF784F90646104B1B6813F46F
:10177000807FCED1FFF77CF9801B0228F5D90320AA
:10178000AAE0084A136F43F001031367CFE7054B44
:101790001A6F42F004021A671A6F42F001021A67C8
:1017A000C5E700BF0038024000004742007000401B
:1017B000FFF75EF906464F4B1B6F13F0020F08D080
:1017C000FFF756F9801B41F288339842F3D9032082
:1017D00082E0E5B9A369002B7DD0464A926802F009
:1017E0000C02082A51D0022B17D0434B00221A6654
:1017F000FFF73EF904463F4B1B6813F0007F42D0D1
:10180000FFF736F9001B0228F5D9032064E0394AB6
:10181000136C23F080531364DCE7374B00221A6605
:10182000FFF726F90546334B1B6813F0007F06D0FF
:10183000FFF71EF9401B0228F5D903204CE0E369AD
:10184000226A1343626A43EA8213A26A5208013A87
:1018500043EA0243E26A43EA0263264A5360264BA4
:1018600001221A66FFF704F90446224B1B6813F0A5
:10187000007F06D1FFF7FCF8001B0228F5D90320F2
:101880002AE0002028E0002026E0012B26D0194B7A
:101890005B6803F48001E269914221D103F03F02C9
:1018A000216A8A421ED1616A47F6C0721A408A4292
:1018B0001AD103F44032A16A8A4217D103F070634F
:1018C000E26A934214D1002006E001207047012013
:1018D00002E0012000E0002002B070BD0120FBE723
:1018E0000120F9E70120F7E70120F5E70120F3E700
:1018F0000120F1E7003802400000474208B5254BBF
:101900009B6803F00C03042B3FD0082B3FD1214BE5
:101910005A6802F03F025B6813F4800F12D01D4B2F
:101920005968C1F388111C480023A1FB0001FEF790
:101930004FFC184B5B68C3F3014301335B00B0FB02
:10194000F3F025E0134B5968C1F3881C4FEA4C11A2
:10195000B1EB0C006EEB0E0E4FEA8E1343EA906370
:101960008101091A63EB0E03DB0043EA5173C900DE
:1019700011EB0C0C43F10003990200234FEA8C2079
:1019800041EA9C51FEF724FCD3E7034800E00348FA
:1019900008BD00BF00380240001BB7000024F4005F
:1019A000002800F09B8070B50D4604464F4B1B6825
:1019B00003F00F038B4208D2CBB24C4A137013686A
:1019C00003F00F038B4240F08B80236813F0020F6B
:1019D00017D013F0040F04D0454A936843F4E05342
:1019E0009360236813F0080F04D0414A936843F4CE
:1019F000604393603E4A936823F0F003A1680B4371
:101A00009360236813F0010F32D06368012B21D05B
:101A10009A1E012A25D9364A126812F0020F61D0A7
:101A200033498A6822F0030213438B60FFF720F8E2
:101A300006462F4B9B6803F00C036268B3EB820FE2
:101A400016D0FFF715F8801B41F288339842F0D981
:101A5000032042E0264A126812F4003FE0D1012040
:101A60003BE0234A126812F0007FD9D1012034E014
:101A70001E4B1B6803F00F03AB4207D9EAB21B4BA6
:101A80001A701B6803F00F03AB422DD1236813F0CB
:101A9000040F06D0164A936823F4E053E1680B4321
:101AA0009360236813F0080F07D0114A936823F45A
:101AB0006043216943EAC1039360FFF71FFF0C4BAA
:101AC0009B68C3F303130B4AD35CD8400A4B1860DE
:101AD0000A4B1868FEF780FF002070BD0120704798
:101AE0000120FAE70120F8E70120F6E7003C024078
:101AF00000380240483600080C0000200400002096
:101B0000842801D00330704700207047EFF3058030
:101B1000003818BF0120704708B500F065FD0020AF
:101B200008BD08B5FFF7F2FF10B100F0A5FD08BD34
:101B300000F09CFDFBE72DE9F04387B004460F461B
:101B40004569BDB18669AEB1D0F80480D0F8009087
:101B5000B0F90800FFF7D4FF0296019500903B46CC
:101B600022694946404600F0CFFC0590059807B031
:101B7000BDE8F08365682668D4F81080B4F90800E1
:101B8000FFF7BEFF05AB019300903B461FFA88F2BA
:101B90003146284600F0F3FC0128E7D00020E6E7B4
:101BA00008B500B9012000F077FE002008BD8120B3
:101BB000704700F1080343604FF0FF328260C3605A
:101BC000036100230360704700230361704743688B
:101BD0004B609A688A6051609960086103680133BC
:101BE0000360704730B40D68B5F1FF3F11D000F1CC
:101BF00008031C465B681A68AA42FAD963684B60FE
:101C000099608C606160086103680133036030BCD7
:101C100070470469F2E70369416882688A60416835
:101C200051605A68824206D0002202611A68013A65
:101C30001A601868704782685A60F5E782B000231E
:101C400001930D4B1B68B3F1FF3F08D04FF05003D9
:101C500083F31188BFF36F8FBFF34F8FFEE74FF011
:101C6000500383F31188BFF36F8FBFF34F8F019B36
:101C7000002BFCD002B07047080000200848006824
:101C8000006880F308884FF0000080F3148862B683
:101C900061B6BFF34F8FBFF36F8F00DF00BF00004F
:101CA00008ED00E0DFF80C00016841F4700101600C
:101CB0007047000088ED00E04FF0807340F8043C6E
:101CC00021F0010140F8081C054B40F80C3C40F89D
:101CD000202C6FF0020340F8243C4438704700BFCA
:101CE0003D1C000800000000000000000000000093
:101CF000074B19680868B0E8F04F80F30988BFF314
:101D00006F8F4FF0000080F311887047AFF30080B1
:101D1000E45300204FF0500383F31188BFF36F8F1B
:101D2000BFF34F8F0B4A136801331360012B00D0B0
:101D300070474FF0E023D3F8043D13F0FF0FF7D0C6
:101D40004FF0500383F31188BFF36F8FBFF34F8FB2
:101D5000FEE700BF08000020094B1B6843B94FF0A5
:101D6000500383F31188BFF36F8FBFF34F8FFEE7EC
:101D7000013B034A13600BB983F31188704700BF1E
:101D8000080000200000000000000000000000002B
:101D9000EFF30980BFF36F8F154B1A681EF0100F19
:101DA00008BF20ED108A20E9F04F10602DE90900EE
:101DB0004FF0500080F31188BFF34F8FBFF36F8F48
:101DC00000F090FD4FF0000080F3118809BC196805
:101DD0000868B0E8F04F1EF0100F08BFB0EC108A92
:101DE00080F30988BFF36F8F704700BFAFF30080A7
:101DF000E453002008B54FF0500383F31188BFF37C
:101E00006F8FBFF34F8F00F03FFC28B14FF0E023FE
:101E10004FF08052C3F8042D002383F3118808BDCE
:101E20004FF0E022002313619361054B1B680549C5
:101E3000A1FB03139B09013B536107231361704707
:101E40000C000020D34D62104FF0E023D3F8002D9A
:101E50003D4B9A421CD04FF0E023D3F8002D3B4B72
:101E60009A421ED030B583B0394B1A78D2B2019263
:101E7000FF221A701B78DBB28DF803309DF8033017
:101E800003F05003334A1370334B07221A601BE0F0
:101E90004FF0500383F31188BFF36F8FBFF34F8F61
:101EA000FEE74FF0500383F31188BFF36F8FBFF34A
:101EB0004F8FFEE7284A1368013B13609DF80330FB
:101EC0005B00DBB28DF803309DF8033013F0800F18
:101ED000F0D1214B1B68032B08D04FF0500383F344
:101EE0001188BFF36F8FBFF34F8FFEE71B021A4AB3
:101EF000136003F4E0631360019BDBB2144A1370B8
:101F00004FF0E024D4F8203D43F47003C4F8203DA2
:101F1000D4F8203D43F07043C4F8203DFFF780FF24
:101F200000250E4B1D60FFF7BDFED4F8343F43F093
:101F30004043C4F8343FFFF7A1FE00F0D3FCFFF7A5
:101F40007DFE284603B030BD71C20F4170C20F4103
:101F500000E400E0C4170020C8170020080000209B
:101F6000EFF305830F2B0FD9114A9B5CDBB2114AAB
:101F700012789A4208D94FF0500383F31188BFF3C7
:101F80006F8FBFF34F8FFEE74FF0E023D3F80C3D88
:101F900003F4E063084A1268934208D94FF05003F3
:101FA00083F31188BFF36F8FBFF34F8FFEE7704746
:101FB000F0E300E0C4170020C8170020124A12F016
:101FC000070F1ED0D11D21F00701C1F57053134436
:101FD0000A460E480260002141601344083B23F08A
:101FE00007030B48036059601960991A5160136028
:101FF000084B1960084B1960084B4FF000421A60FB
:1020000070474FF47053E4E7D0170020DC530020F2
:10201000CC170020D8530020D4530020D0530020E8
:10202000164B1A461B688342FBD3516802EB010C26
:10203000844509D0416800EB010C634509D0036079
:10204000904219D0106070474068014451601046BA
:10205000F0E710B40A4C2468A3420BD05B68194423
:10206000416013681B680360904200D010605DF807
:10207000044B70470460F7E7704700BFDC53002053
:10208000CC17002070B5054600F0E8FA344B1B6809
:10209000A3B1344B1B681D424AD135B1083515F048
:1020A000070F02D025F007050835002D42D02E4B32
:1020B0001B68AB424DD32D4A146804E0FFF77EFF46
:1020C000E7E722461C466368AB4202D22368002B36
:1020D000F7D1234B1B68A3423DD01668083623680E
:1020E000136063685B1B102B10D9601910F0070F89
:1020F00008D04FF0500383F31188BFF36F8FBFF305
:102100004F8FFEE743606560FFF78AFF62681649FC
:102110000B689B1A0B60164909688B4201D214495F
:102120000B60104B1B68134363600023236002E0C5
:10213000002600E0002600F033FB16F0070F0CD05D
:102140004FF0500383F31188BFF36F8FBFF34F8FAE
:10215000FEE70026EFE70026EDE7304670BD00BF42
:10216000CC170020D0530020D4530020DC53002093
:10217000D853002080B338B50446A0F1080550F8C4
:10218000043C164A1268134208D14FF0500383F3FF
:102190001188BFF36F8FBFF34F8FFEE750F8081C15
:1021A00041B14FF0500383F31188BFF36F8FBFF33A
:1021B0004F8FFEE723EA020340F8043C00F04EFA9A
:1021C00054F8041C064A13680B4413602846FFF7B2
:1021D00027FF00F0E5FA38BD704700BFD05300205C
:1021E000D4530020084B1B681B6823B9074B4FF0E2
:1021F000FF321A607047044B1B68DB68DB685A6863
:10220000024B1A60704700BFE8530020C054002002
:102210002DE9F04707469846089DDDF824900A9C72
:10222000266B02F18042013A06EB820626F0070691
:1022300000293AD08E464FF0000CBCF10F0F0BD89E
:102240001EF80C2004EB0C0383F834201EF80C302D
:1022500013B10CF1010CF0E7002384F84330062D94
:1022600000D90625E56265644FF0000AC4F848A06D
:10227000201DFFF7A9FC04F11800FFF7A5FC24615D
:10228000C5F10705A5616462C4F84CA084F850A0AC
:10229000424639463046FFF70FFD2060B9F1000F86
:1022A00001D0C9F80040BDE8F087002384F834303D
:1022B000D5E7000038B5002407E004EB8402930062
:1022C0000E481844FFF775FC0134062CF5D90C4D67
:1022D0002846FFF76EFC0B4C2046FFF76AFC0A48C5
:1022E000FFF767FC0948FFF764FC0948FFF761FC4A
:1022F000084B1D60084B1C6038BD00BFF053002028
:1023000094540020A8540020C8540020F454002005
:10231000E0540020E8530020EC53002010B50446A0
:10232000FFF7F8FC214A136801331360204B1B6848
:102330005BB1204B1B686BB91D4B1B68DA6AE36A03
:102340009A4207D81A4B1C6004E0194B1C601368B2
:10235000012B28D0184A136801331360E06A012367
:102360008340164A11680B43136000EB8000211D67
:10237000134B03EB8000FFF72AFCFFF7EDFC0D4B3E
:102380001B687BB10A4B1B68DA6AE36A9A4209D27E
:102390004FF0E0234FF08052C3F8042DBFF34F8F6E
:1023A000BFF36F8F10BDFFF785FFD3E77C5400208C
:1023B000E4530020DC5400208C5400209054002072
:1023C000F053002010B5044690F8513063B1012B52
:1023D00011D0022B0ED04FF0500383F31188BFF3BE
:1023E0006F8FBFF34F8FFEE7006BFFF7C3FE2046F2
:1023F000FFF7C0FE10BDFFF7BDFEFBE70F4B1B68EC
:10240000D3B110B5FFF786FC0D4BDB68DC68201DEF
:10241000FFF701FC0B4A1368013B1360074A13687E
:10242000013B1360FFF798FC2046FFF7CBFF034BFF
:102430001B68002BE6D110BD704700BF8054002000
:10244000F45400207C54002008B5FFF7D7FF074B59
:102450001B68012BF9D94FF0E0234FF08052C3F8ED
:10246000042DBFF34F8FBFF36F8FEEE7F0530020C3
:1024700070B504460D461D4B1E681D4B1868043090
:10248000FFF7C9FB50B91A4B1B68DA6A012303FA3C
:1024900002F218490B6823EA02030B60B4F1FF3F14
:1024A0000DD03444124B1B685C60A64210D9124B0D
:1024B00018680F4B19680431FFF794FB70BD002DAD
:1024C000EFD00B4B196804310C48FFF780FBF5E7A0
:1024D0000B4B1868064B19680431FFF783FB094B57
:1024E0001B68A342EAD9074B1C60E7E708550020A8
:1024F000E453002090540020EC530020E0540020CE
:10250000E8530020C054002030B587B00B9C7CB14C
:102510000C9DB5B154250495049D542D1AD04FF04F
:10252000500383F31188BFF36F8FBFF34F8FFEE724
:102530004FF0500383F31188BFF36F8FBFF34F8FBA
:10254000FEE74FF0500383F31188BFF36F8FBFF3A3
:102550004F8FFEE7049D0C9D2C63022485F85140AB
:1025600000240394029505AC01940A9C0094FFF7A3
:102570004FFE0C98FFF7D2FE059807B030BD2DE94D
:10258000F04385B00746884614461E469000FFF784
:1025900079FD00B381465420FFF774FD0546B0B1C4
:1025A000C0F83090E5B1002385F8513003930295CF
:1025B0000D9B01930C9B00933346224641463846BF
:1025C000FFF726FE2846FFF7A9FE012005E0484652
:1025D000FFF7D0FDE6E74FF0FF3005B0BDE8F08330
:1025E0004FF0FF30F9E7000010B588B000240594E3
:1025F000069407AA06A905A800F066FC059B0293AD
:10260000069B019300942346079A0E490E48FFF754
:102610007BFF0E4B186090B14FF0500383F311888D
:10262000BFF36F8FBFF34F8F094B4FF0FF321A602C
:10263000084B01221A60084B1C60FFF705FC08B02C
:1026400010BD00BF2036000849240008BC540020FB
:10265000C0540020DC54002008550020024A1368B2
:1026600001331360704700BF88540020014B186885
:10267000704700BF0855002008B5FFF771FC014BFB
:10268000186808BD08550020F8B53A4B1B68002BA8
:1026900064D1394B1D6801351D60C5B9374B1B68C6
:1026A0001B6843B14FF0500383F31188BFF36F8F62
:1026B000BFF34F8FFEE7314A1168314B1868106045
:1026C0001960304A136801331360FFF78BFD2E4BFE
:1026D0001B68AB4238D900272C4B1B68DB6A03EB25
:1026E00083039A002A4B9B58012B3CD901273AE0DF
:1026F0000127224B1B681B6843B3204B1B68DB6818
:10270000DC6863689D4226D3261D3046FFF783FAB6
:10271000A36A1BB104F11800FFF77DFAE36A0122F6
:102720009A401C49086802430A6003EB83039A003D
:10273000314617481044FFF74AFAE26A134B1B6808
:10274000DB6A9A42D4D2D4E70027D2E70E4B4FF08F
:10275000FF321A60C0E70C4A1360BDE70E4A1368E7
:102760000133136000270D4B1B6803B10127384666
:10277000F8BD00BF8854002008550020E853002011
:10278000EC530020C4540020C0540020E453002027
:10279000F053002090540020845400200C55002059
:1027A00038B5354B1B6843B94FF0500383F311889C
:1027B000BFF36F8FBFF34F8FFEE7FFF7ABFA2E4BE0
:1027C0001A68013A1A601B68002B4FD12B4B1B680B
:1027D0000BB900244BE00024294B1B681BB3284B8A
:1027E000DB68DC6804F11800FFF715FA251D2846A0
:1027F000FFF711FAE06A01238340224A11680B4374
:10280000136000EB800029461F4B03EB8000FFF7AD
:10281000DEF9E26A1D4B1B68DB6A9A42DCD31C4B73
:1028200001221A60D8E70CB1FFF7DCFC194B1C68D9
:1028300084B9174B1C68D4B14FF0E0234FF080529D
:10284000C3F8042DBFF34F8FBFF36F8F01240EE049
:10285000013C07D0FFF718FF0028F9D00C4B0122EC
:102860001A60F5E70B4B00221A60E2E70024FFF73D
:1028700073FA204638BD00BF885400207C540020E5
:10288000C854002090540020F0530020E45300204E
:102890000C5500208454002010B5A8B10446104BFC
:1028A0001B6843B14FF0500383F31188BFF36F8F60
:1028B000BFF34F8FFEE7FFF7D1FE00212046FFF761
:1028C000D7FDFFF76DFF48B94FF0E0234FF080527E
:1028D000C3F8042DBFF34F8FBFF36F8F10BD00BF40
:1028E00088540020204B1B681BB1204B01221A602A
:1028F00070471E4B00221A601D4B1B68B3FA83F30E
:10290000DBB2C3F11F0303EB83018A0019498A5824
:1029100042B94FF0500383F31188BFF36F8FBFF3B9
:102920004F8FFEE7134903EB830082000A4450688F
:102930004068506003EB830C4FEA8C02083211446C
:10294000884209D003EB83039A000A4B13445B6867
:10295000DA68094B1A607047406862469100054A80
:102960000A445060EEE700BF885400200C55002058
:1029700090540020F0530020E4530020054B1B68C6
:1029800033B1054B1B680BB1002070470220704724
:1029900001207047DC5400208854002010B500232B
:1029A00005E011F803C0574A02F803C001330F2BAA
:1029B000F7DD91F800E04B784EEA032ECEF30A0ED5
:1029C000A0F800E0AEF5806E1FFA8EFEA0F800E0E1
:1029D00091F801C08B784FEADC0C4CEA431CCCF335
:1029E0000A0CA0F802C0ACF5806C1FFA8CFCA0F8B1
:1029F00002C08B78CA789B0943EA82030A7943EACA
:102A00008223C3F30A038380A3F580639BB2838090
:102A10000A794C79520842EAC412C2F30A02C2800F
:102A2000A2F5806292B2C2800EF1050E1FFA8EFEF0
:102A3000BEF10A0F01D8002404800CF1050C1FFA26
:102A40008CFCBCF10A0F01D80024448005339BB2F2
:102A50000A2B01D800238380053292B20A2A01D8BA
:102A60000023C3804B799B0903724B79C3F3011395
:102A70004372B0F90030002BB8BF5B429BB2B3F594
:102A8000257F37D8B0F90230002BB8BF5B429BB22C
:102A9000B3F5257F2ED8B0F90430002BB8BF5B42C8
:102AA0009BB2B3F5257F25D8B0F90630002BB8BF0F
:102AB0005B429BB2B3F5257F1CD88B79CA7943EA78
:102AC000022343810B7A4A7A43EA022383810B7BF8
:102AD00083734B7BC3738B7BCA7B43EA02230382E2
:102AE0000B7C4A7C43EA02231BB24382A3F580633A
:102AF000438205E00023036043608360C360036199
:102B000010BD00BF4055002010B58AB0044601AB8F
:102B100003AA0021FEF7A0F9524B9C4204D0524B6D
:102B20009C4240D00AB010BD039B40F23112934248
:102B300022D0B3F5997FF2D19DF804304B490B7246
:102B40009DF805304B729DF806308B729DF807306A
:102B5000CB729DF808300B739DF809304B739DF8CC
:102B60000A308B739DF80B30CB734148FFF716FF8B
:102B70000520FDF739FED2E79DF804203B4B1A7083
:102B80009DF805205A709DF80720DA709DF80820FE
:102B90001A719DF809205A719DF80A209A719DF8C2
:102BA0000B20DA71BBE7039BA3F20123032BB9D8F7
:102BB000DFE803F002152B412E4A536A591C51627B
:102BC000322B07DC01A9104600F08AFB0120FDF73B
:102BD0000BFEA7E701A9274800F016FBF6E7254AF8
:102BE000D2F8AC34591CC2F8AC14322B08DC01A961
:102BF00002F5916000F074FB0220FDF7F5FD91E70E
:102C000001A91D4800F000FBF6E71A4AD2F8343952
:102C1000591CC2F83419322B08DC01A902F51160E5
:102C200000F05EFB0320FDF7DFFD7BE701A9134801
:102C300000F0EAFAF6E70F4AD2F8BC3D591CC2F898
:102C4000BC1D322B08DC01A902F6985000F048FBAD
:102C50000420FDF7C9FD65E701A9094800F0D4FA91
:102C6000F6E700BF90550020685500201055002061
:102C70005055002058040020E0080020680D002076
:102C8000F011002010B582B08E4694460F494FF4E3
:102C900000720A6000228A60CA6008220A610C4A37
:102CA0000412147050704FEA2E20907082F803E0E6
:102CB0004FEA2C20107182F805C018129071D37160
:102CC00001AB0448FEF74AF802B010BD28550020B9
:102CD000205500206855002008B50D480D4B0360B5
:102CE0000323436000238360C3604FF4102202611A
:102CF0004FF400124261037643768376C3760377FE
:102D00004377FDF7BBFE00B908BD00F075F9FBE79E
:102D1000685500200064004008B50D480D4B036065
:102D20000323436000238360C3604FF410220261D9
:102D30004FF400124261037643768376C3760377BD
:102D40004377FDF79BFE00B908BD00F055F9FBE79E
:102D5000905500200068004010B58AB0002305930C
:102D6000069307930893099303683D4A934204D05E
:102D70003C4A934234D00AB010BD3B4A1368013339
:102D80001360012B1FD000240194384B1A6B42F0C2
:102D900008021A631B6B03F008030193019B0323D2
:102DA00005930222069208930923099305A9304846
:102DB000FEF7B6FA224605211420FEF747FA142042
:102DC000FEF77CFAD7E700230093284B1A6C42F0F9
:102DD00000721A641B6C03F000730093009BD2E72F
:102DE00000230293214B1A6C42F080621A641B6C20
:102DF00003F080630293029B1B4A13680133136044
:102E0000012B20D000240494184B1A6B42F00202CC
:102E10001A631B6B03F002030493049B6023059366
:102E200002230693032308930923099305A9114854
:102E3000FEF776FA224605214020FEF707FA4020E9
:102E4000FEF73CFA97E700230393084B1A6C42F015
:102E500000721A641B6C03F000730393039BD1E7A9
:102E600000640040006800406455002000380240C3
:102E7000000C02400004024008B50548054B036001
:102E8000FEF73EFA00B908BD00F0B6F8FBE700BF58
:102E9000B8550020003002400268094B9A4200D029
:102EA000704782B000230193064B1A6B42F48052A4
:102EB0001A631B6B03F480530193019B02B07047AC
:102EC0000030024000380240034B0360034B0B60AC
:102ED00080231360704700BFCC570020CC550020E2
:102EE00010B596B01B4C0DF13C0CA646BEE80F0089
:102EF000ACE80F009EE807008CE8070000210FA84F
:102F0000FEF719FE144B18600DF1200C04F11C0E95
:102F1000BEE80F00ACE80F009EE807008CE8070051
:102F2000002108A8FEF707FE0C4B18600DF1040EF7
:102F300004F1380CBCE80F00AEE80F009CE8070075
:102F40008EE80700002101A8FEF7F5FD044B18608C
:102F500016B010BDCC350008C8550020C055002063
:102F6000C455002030B58BB0002405940694079416
:102F70000894099401941E4B1A6B42F002021A63E2
:102F80001A6B02F002020192019A02941A6B42F04B
:102F900001021A631A6B02F001020292029A039470
:102FA0001A6B42F008021A631A6B02F008020392CD
:102FB000039A04941A6B42F080021A631B6B03F0AD
:102FC00080030493049B0B4D22464FF4E0512846A6
:102FD000FEF78EFA4FF4E05305930123069307940E
:102FE000089405A92846FEF79BF90BB030BD00BF39
:102FF00000380240001C024072B6FEE700B595B0F2
:103000003022002108A800F013FA00230393049350
:103010000593069307930193204A116C41F0805168
:103020001164126C02F080520192019A02931C4BBF
:103030001A6842F480421A601B6803F480430293CA
:10304000029B012308934FF48033099302230E93CC
:103050004FF480020F9206221092A822119212932E
:103060000823139308A8FEF753FA98B90F23039384
:1030700002230493002305934FF4A05306934FF4C7
:1030800080530793052103A8FEF78AFC20B915B0E9
:103090005DF804FBFFF7B0FFFFF7AEFF003802401A
:1030A0000070004008B5FDF7BDFCFFF7A7FFFFF774
:1030B00059FFFFF711FEFFF72FFEFFF7DDFEA820F7
:1030C000FDF764FCFDF702FCFFF70AFFFEF724FDA5
:1030D000FEE7000000B583B0002200920D4B596C52
:1030E00041F480415964596C01F480410091009988
:1030F0000192196C41F0805119641B6C03F08053EC
:103100000193019B0F216FF00100FEF79FF803B0C0
:103110005DF804FB00380240FEE7FEE7FEE7FEE74D
:10312000FEE7704708B5FDF797FCFFF727FC01287D
:1031300000D108BDFEF75EFEFBE7000008B50248BF
:10314000FDF74DFF08BD00BF6855002008B50248D7
:10315000FDF745FF08BD00BF90550020054BD3F893
:10316000882042F47002C3F888204FF000629A6011
:10317000704700BF00ED00E070B50446164611EE42
:10318000103A836410EE903A436410EE103A0364F0
:103190000025056011EE903A436012EE103A83600C
:1031A00012EE903AC360056313EE103A036513EE16
:1031B000903A436514EE103A836514EE903AC36575
:1031C000A0F86010623000F0B8F884F88C5084F8F1
:1031D0008D5084F88E5084F88F5084F8986084F86D
:1031E000995084F89A5084F89B5084F89C5084F845
:1031F0009D5084F89E5084F89F5084F8A05084F825
:10320000A150656370BD000010B50446C379012B61
:1032100047D00A784B7843EA022383828A78CB78B6
:1032200043EA022303800A794B7943EA02231BB263
:1032300007EE903AF8EEE77A17EE903AC4F80230CB
:103240008B79A371A38AE28A9A1AB2F5805F37DD7F
:10325000D4F81A20013AC4F81A20B4F922209B1A93
:1032600000EE103A9FED1B1ADFED1B0AB8EEC00A04
:1032700000F03EF810EE103AE360DFED187A20EE31
:10328000270A10EE103A2361D4F81A10A28A93B2DA
:1032900003EB4133B4F918105B1AC4F81E30E28214
:1032A00010BD0A784B7843EA0223C3F5FF531F335E
:1032B00083828A78CB7843EA02235B420380B2E7B9
:1032C00012F5805FC9DAD4F81A200132C4F81A2046
:1032D000C3E700BF00F87F4500F87FC5A605343D71
:1032E0000A784B7843EA022383820383C3827047C0
:1032F000B4EEE01AF1EE10FA1ED4B4EEC01AF1EEFC
:1033000010FA0AD571EE600A01E030EE600AB4EE00
:10331000C10AF1EE10FAF8DC7047F4EEC00AF1EEE3
:1033200010FA09DD31EE601AB4EEE00AF1EE10FA9F
:1033300002D530EE010AF7E7704770B50446018008
:1033400000258570C570057145718E003046FEF709
:1033500099FEC4F806003046FEF794FEC4F80A0051
:103360000023C4F80E30C4F8123032462946D4F88F
:10337000060000F05DF832462946D4F80A0000F055
:1033800057F8C4F81A50C4F81E50C4F82250C4F8B4
:10339000265070BDDFF834D0002103E00C4B5B58A1
:1033A000435004310B480C4B42189A42F6D30B4A57
:1033B00002E0002342F8043B094B9A42F9D3FFF79D
:1033C000CDFE00F011F8FFF76DFE704700000220FF
:1033D00070360008000000203C0400203C0400205F
:1033E00024580020FEE7000070B50D4E0D4D761BF1
:1033F000B61006D0002455F8043B01349847A64285
:10340000F9D1094E094D761B00F0D4F8B61006D05C
:10341000002455F8043B01349847A642F9D170BD09
:1034200064360008643600086C360008643600080C
:10343000830730B548D0541E002A3FD0CAB2034695
:1034400001E0013C3AD303F8012B9D07F9D1032C8D
:103450002DD9CDB245EA05250F2C45EA054536D9CB
:10346000A4F1100222F00F0C03F1200EE6444FEA03
:10347000121C03F1100242E9045542E902551032D0
:103480007245F8D10CF1010214F00C0F03EB02129B
:1034900004F00F0C13D0ACF1040323F00303043346
:1034A000134442F8045B9342FBD10CF003042CB1AB
:1034B000CAB21C4403F8012B9C42FBD130BD6446C8
:1034C0001346002CF4D1F9E703461446BFE71A4629
:1034D000A446E0E7024B13B1024800F005B870477C
:1034E00000000000F5340008002301461A46184683
:1034F00000F01AB838B5084B084D5B1B9C1007D07C
:10350000043B1D44013C55F804399847002CF9D17F
:10351000BDE8384000F054B8703600086C3600083A
:10352000704700BF704700BF2DE9F047DFF880A06B
:103530000646DAF8000098460F469146FFF7F0FF7E
:103540001A4B1B68D3F8484124B365681F2D26DC4D
:103550005EB96B1C0235DAF80000636044F8257030
:10356000FFF7E0FF0020BDE8F08704EB85010123B1
:10357000C1F88890D4F88821AB401A43022EC4F8D1
:103580008821C1F80881E4D1D4F88C211343C4F810
:103590008C31DEE703F5A674C3F84841D5E7DAF8C5
:1035A0000000FFF7BFFF4FF0FF30DCE758360008A0
:1035B00038040020F8B500BFF8BC08BC9E46704730
:0C35C000F8B500BFF8BC08BC9E46704780
:1035CC0028360008B10800080000000000000000C8
:1035DC000001000000000000000000003836000868
:1035EC00E1050008FDFF00000000000000010000E4
:1035FC00000000000000000040360008150800081C
:10360C00FDFF000000000000800000000000000032
:10361C000000000049444C45000000005472616EEB
:10362C00736D697373696F6E00000000436861739A
:10363C0073697300446574656374000000000000D6
:10364C000000000001020304060708091000002016
:08365C00A4CBFF7F0100000078
:08366400D5340008B50100088F
:04366C0091010008C0
:103670000100000010000000AAAAAAAA0024F40079
:1036800000000000FC02002064030020CC030020A6
:10369000000000000000000000000000000000002A
:1036A000000000000000000000000000000000001A
:1036B000000000000000000000000000000000000A
:1036C00000000000000000000000000000000000FA
:1036D00000000000000000000000000000000000EA
:1036E00000000000000000000000000000000000DA
:1036F00000000000000000000000000000000000CA
:1037000000000000000000000000000000000000B9
:1037100000000000000000000000000000000000A9
:103720000000000000000000010000000000000098
:103730000E33CDAB34126DE6ECDE05000B0000005D
:103740000000000000000000000000000000000079
:103750000000000000000000000000000000000069
:103760000000000000000000000000000000000059
:103770000000000000000000000000000000000049
:0C3AA00000000000000000002058002082
:040000050800339527
:00000001FF
