:020000040800F2
:1000000000000220652D00081D2C00081F2C000890
:10001000212C0008232C0008252C000800000000DB
:10002000000000000000000000000000C1190008EE
:10003000272C000800000000611A0008292C000885
:10004000B52D0008B52D0008B52D0008B52D000808
:10005000B52D0008B52D0008B52D0008B52D0008F8
:10006000B52D0008B52D0008B52D0008B52D0008E8
:10007000B52D0008B52D0008B52D0008B52D0008D8
:10008000B52D0008B52D0008B52D0008B52D0008C8
:10009000412C0008B52D0008B52D0008B52D00082D
:1000A000B52D0008B52D0008B52D0008B52D0008A8
:1000B000B52D0008B52D0008B52D0008B52D000898
:1000C000B52D0008B52D0008B52D0008B52D000888
:1000D000B52D0008B52D0008B52D0008B52D000878
:1000E000B52D0008B52D0008B52D0008B52D000868
:1000F000B52D0008B52D0008B52D0008B52D000858
:10010000B52D0008B52D0008B52D0008B52D000847
:10011000B52D0008B52D0008B52D0008B52D000837
:10012000B52D0008B52D0008B52D0008B52D000827
:10013000B52D0008B52D0008B52D0008B52D000817
:10014000512C0008B52D0008B52D0008B52D00086C
:10015000B52D0008B52D0008B52D0008B52D0008F7
:10016000B52D0008B52D0008B52D0008B52D0008E7
:10017000B52D0008B52D0008B52D000800000000C1
:08018000B52D0008B52D0008A3
:1001900010B5054C237833B9044B13B10448AFF3C1
:1001A00000800123237010BD3C04002000000000EB
:1001B000842F000808B5034B1BB103490348AFF374
:1001C000008008BD0000000040040020842F0008CB
:1001D00053B94AB9002908BF00281CBF4FF0FF31AE
:1001E0004FF0FF3000F074B9ADF1080C6DE904CEAA
:1001F00000F006F8DDF804E0DDE9022304B0704702
:100200002DE9F047089D04468E46002B4DD18A42C9
:10021000944669D9B2FA82F252B101FA02F3C2F1FC
:10022000200120FA01F10CFA02FC41EA030E94408D
:100230004FEA1C48210CBEFBF8F61FFA8CF708FBAE
:1002400016E341EA034306FB07F199420AD91CEB86
:10025000030306F1FF3080F01F81994240F21C81B8
:10026000023E63445B1AA4B2B3FBF8F008FB103300
:1002700044EA034400FB07F7A7420AD91CEB040435
:1002800000F1FF3380F00A81A74240F20781644405
:10029000023840EA0640E41B00261DB1D44000238A
:1002A000C5E900433146BDE8F0878B4209D9002DEE
:1002B00000F0EF800026C5E9000130463146BDE878
:1002C000F087B3FA83F6002E4AD18B4202D38242E2
:1002D00000F2F980841A61EB030301209E46002D91
:1002E000E0D0C5E9004EDDE702B9FFDEB2FA82F2E6
:1002F000002A40F09280A1EB0C014FEA1C471FFA44
:100300008CFE0126200CB1FBF7F307FB131140EA2A
:1003100001410EFB03F0884208D91CEB010103F1F7
:10032000FF3802D2884200F2CB804346091AA4B2B9
:10033000B1FBF7F007FB101144EA01440EFB00FE8D
:10034000A64508D91CEB040400F1FF3102D2A645F2
:1003500000F2BB800846A4EB0E0440EA03409CE791
:10036000C6F12007B34022FA07FC4CEA030C20FA3E
:1003700007F401FA06F31C43F9404FEA1C4900FA5E
:1003800006F3B1FBF9F8200C1FFA8CFE09FB1811DB
:1003900040EA014108FB0EF0884202FA06F20BD94E
:1003A0001CEB010108F1FF3A80F08880884240F29E
:1003B0008580A8F102086144091AA4B2B1FBF9F0E2
:1003C00009FB101144EA014100FB0EFE8E4508D9DD
:1003D0001CEB010100F1FF346CD28E456AD9023862
:1003E000614440EA0840A0FB0294A1EB0E01A14247
:1003F000C846A64656D353D05DB1B3EB080261EBB5
:100400000E0101FA07F722FA06F3F1401F43C5E98E
:10041000007100263146BDE8F087C2F12003D840C4
:100420000CFA02FC21FA03F3914001434FEA1C4706
:100430001FFA8CFEB3FBF7F007FB10360B0C43EAF8
:10044000064300FB0EF69E4204FA02F408D91CEBA8
:10045000030300F1FF382FD29E422DD902386344A6
:100460009B1B89B2B3FBF7F607FB163341EA034146
:1004700006FB0EF38B4208D91CEB010106F1FF3895
:1004800016D28B4214D9023E6144C91A46EA00468C
:1004900038E72E46284605E70646E3E61846F8E61E
:1004A0004B45A9D2B9EB020864EB0C0E0138A3E767
:1004B0004646EAE7204694E74046D1E7D0467BE748
:1004C000023B614432E7304609E76444023842E7C0
:1004D000704700BF70B52DED028B264B186801F0F8
:1004E000BCF9002628E0DFED242A9FED248A4FF492
:1004F000916404FB06F505F1D800214C204411223B
:100500000121F0EE624A9FED1F4ADFED1F3A9FED99
:100510001F3AB2EE0E2AF2EE001AB7EE001AF0EE13
:10052000480A9FED1B0A043002F0A8FB2C4418EE89
:10053000103AC4F82E300136032ED4DD9FED0E1A8A
:10054000DFED140A47220521DFED134AB0EE414AE0
:10055000DFED0D3AB0EE603AF0EE412AB0EE412AFE
:10056000F1EE041A9FED090A0C4802F087FBBDEC7E
:10057000028B70BD20550020000000000000FA45ED
:10058000580400206F12833A0000C8420000FA436A
:1005900000007A46000096430AD7233C78160020D4
:1005A000254B1A785A70254A137C92F91020002A9C
:1005B00020DB03F09003902B21D0204B5B7A022BA1
:1005C00029D0032B23D0012B1DD01C4A127A022ADA
:1005D00025D01B4A127852B1174A1278032A03D049
:1005E000184A1278042A02D1134A05211170022BED
:1005F0001DD0704712490A7801320A70D9E7104BB2
:1006000000221A70D9E70C4A03211170DDE70A4A6B
:1006100000211170D9E7084A00211170D5E7064A78
:100620001278032AD5D1044A05211170D1E7024B73
:1006300000221A70DDE700BF2417002050170020A9
:10064000381700203C17002008B5FFF743FF01F0E2
:10065000BEF8FFF7A5FF012001F0F8F8F9E7000068
:1006600008B54FF4FA7001F0F1F84FF40061024858
:1006700000F09AFDF5E700BF001C024000B58BB00A
:10068000012208920023069307920093019302939C
:100690000393059304936946134800F069F9002811
:1006A000F9D1114800F000FA0028FAD102210E48D1
:1006B00000F0CDFA0028F9D10E230993059369467D
:1006C0000A4800F055F90028F9D1084800F0ECF983
:1006D0000028FAD10221054800F0B9FA0028F9D122
:1006E0000BB05DF804FB00BFC8540020F05400209C
:1006F00000B58BB001AB03AA002100F003FA039B05
:1007000040F23112934205D0B3F5997F1CD00BB063
:100710005DF804FB9DF80420184B1A709DF8052025
:100720005A709DF806209A709DF80720DA709DF89F
:1007300008201A719DF809205A719DF80A209A71B3
:100740009DF80B20DA71E2E79DF804200B4B1A723A
:100750009DF805205A729DF806209A729DF8072090
:10076000DA729DF808201A739DF809205A739DF8D3
:100770000A209A739DF80B20DA73C8E764170020EB
:1007800010B504460E4B18784FF47A73B3FBF0F3B0
:100790000C4A1068B0FBF3F000F0F4FB68B90F2CC2
:1007A00001D901200AE0002221464FF0FF3000F07D
:1007B000A3FB054B1C60002000E0012010BD00BF22
:1007C000000000200C0000200400002008B50B4BA6
:1007D0001A6842F400721A601A6842F480621A6061
:1007E0001A6842F480721A60032000F073FB0F2035
:1007F000FFF7C6FF02F0F0F9002008BD003C024000
:10080000034A1168034B1B780B441360704700BF09
:100810007417002000000020014B1868704700BFCB
:1008200074170020002800F0A18038B5044690F825
:100830002030D3B12268136823F002031360FFF75E
:10084000EBFF054623685A6812F0020F10D0FFF73D
:10085000E3FF401B0A28F5D9636A43F4003363625F
:10086000052384F82030012038BD01F0F5FFE1E7D1
:100870001A6842F001021A60FFF7CEFF05462368AE
:100880005A6812F0010F0DD1FFF7C6FF401B0A286E
:10089000F5D9636A43F400336362052384F820309A
:1008A0000120E1E7227E012A3DD01A6822F0800271
:1008B0001A60637E012B3BD02268136823F040034B
:1008C0001360A37E012B39D02268136823F0200324
:1008D0001360E37E012B37D02268136843F01003C6
:1008E0001360237F012B35D02268136823F008039F
:1008F0001360637F012B33D02268136823F0040355
:100900001360A368E26813432269134362691343C7
:100910006268013A21681343CB61002060620123C1
:1009200084F82030A0E71A6842F080021A60C0E71D
:100930002268136843F040031360C2E7226813681B
:1009400043F020031360C4E72268136823F0100308
:100950001360C6E72268136843F008031360C8E712
:100960002268136843F004031360CAE7012070474C
:1009700090F82030013BDBB2012B05D9436A43F4E8
:10098000802343620120704730B5464BD3F80022E4
:1009900042F00102C3F80022D3F8002222F47C5274
:1009A000C3F80022D3F80022486A42EA0022C3F8C2
:1009B00000224A6902F01F02012000FA02F2D3F875
:1009C0001C026FEA020C20EA0200C3F81C02CB6989
:1009D000C3B9344BD3F80C020CEA0000C3F80C0284
:1009E0008C884869CD6844EA0544483043F8304073
:1009F0008C68088840EA04404C6904F1480E03EB17
:100A0000CE035860CB69012B1ED08B69002B33D1EC
:100A10002448D0F804320CEA0303C0F804320B690E
:100A20008BBB2048D0F814320CEA0303C0F8143210
:100A30000B6A012B2ED01B4AD2F8003223F001039F
:100A4000C2F80032002030BD164BD3F80C02104320
:100A5000C3F80C028C8848690D6844EA05444830A4
:100A600043F8304088894C698D6840EA0540483435
:100A700003EBC4035860C8E70A48D0F804321343B4
:100A8000C0F80432CBE70748D0F814321343C0F85B
:100A90001432CDE70349D1F81C321A43C1F81C22A5
:100AA000C9E700BF0064004070B5044690F82050CC
:100AB000EDB2012D06D0436A43F4002343620125C1
:100AC000284670BD022380F820300268136823F0A6
:100AD00001031360FFF7A0FE064623685B6813F06E
:100AE000010F0CD0FFF798FE831B0A2BF5D9636A20
:100AF00043F400336362052384F82030E0E70025E7
:100B00006562DDE790F820C00CF1FF3C5FFA8CFCD9
:100B1000BCF1010F00F2958030B451B90468E4686B
:100B200014F0030F10D1436A43F400134362012011
:100B300077E00468246914F0030F05D1436A43F495
:100B40000013436201206CE001F11B0424010568DD
:100B50002C5904F004049460002C64D101F11B04AE
:100B6000240105682C59640D1460046801F11B0C04
:100B70004FEA0C1C54F80C4004F00204D4600468E2
:100B80006444646804F00F04146104686444646895
:100B9000C4F307249461046864446468240C5461B9
:100BA000026802EB0112D2F8B8211A70026802EB57
:100BB0000112D2F8B821C2F307225A70026802EB80
:100BC0000112D2F8B821C2F307429A70026802EB10
:100BD0000112D2F8B821120EDA70026802EB01128B
:100BE000D2F8BC211A71026802EB0112D2F8BC21C2
:100BF000C2F307225A71026802EB0112D2F8BC213B
:100C0000C2F307429A71026802EB0112D2F8BC21CA
:100C1000120EDA7179B90268D36843F02003D36009
:100C2000002030BC704701F11B04240105682C59D9
:100C3000E408546099E70268136943F020031361E4
:100C4000EEE7436A43F4802343620120704790F843
:100C50002030013BDBB2012B05D9436A43F48023EA
:100C600043620120704702685369194351610020B3
:100C700070477047704770477047704770477047BC
:100C8000704770477047704770472DE9F84F054629
:100C900003685C69D3F804809F68D3F80CB0D3F87C
:100CA00010A0D3F8189014F001063BD017F00106FD
:100CB00016D001229A6017F0020F08D117F0040F26
:100CC0000CD117F0080606D04FF4805608E0FFF765
:100CD000D0FF002604E0FFF7CFFF01E04FF40066ED
:100CE00017F4807F0DD02B684FF480729A6017F450
:100CF000007F40F0868017F4806F00F0868046F415
:100D0000005617F4803F0DD02B684FF480329A6064
:100D100017F4003F40F0838017F4802F00F08380A9
:100D200046F4004614F0080F07D01BF0100F04D053
:100D300046F400762B681022DA6014F0040F02D01B
:100D40001BF0080F79D114F0020F04D02B68DB6878
:100D500013F0030F78D114F0400F07D01AF0100FE2
:100D600004D046F480662B6810221A6114F0200F1C
:100D700002D01AF0080F6BD114F0100F04D02B68BA
:100D80001B6913F0030F6AD114F4003F02D018F06E
:100D9000100F68D114F4803F02D018F0080F69D109
:100DA00014F4004F7AD018F0040F74D014F4807F3C
:100DB00004D019F0010F01D046F0010614F4007FB1
:100DC00004D019F0020F01D046F0020614F4806F2F
:100DD00004D019F0040F01D046F0040614F4006F9B
:100DE00059D019F0700956D0B9F1400F65D058D8D4
:100DF000B9F1200F5ED0B9F1300F42D146F0200694
:100E000044E02846FFF736FF7BE717F4006F02D077
:100E100046F4804675E72846FFF72FFF71E728461E
:100E2000FFF729FF7EE717F4002F02D046F4803643
:100E300078E72846FFF722FF74E72B680822DA607C
:100E40002846FFF71CFF7EE72846FFF751FC82E7A4
:100E50002B6808221A612846FFF713FF8CE7284603
:100E6000FFF70EFF90E72B6810225A602846FFF725
:100E700009FF8FE72B6808225A602846FFF703FF17
:100E80008EE7B9F1100F01D146F008062A68936980
:100E900023F0700393612B6804225A609EB9BDE869
:100EA000F88FB9F1500F0BD0B9F1600FEED146F4C5
:100EB0008076EBE746F01006E8E746F04006E5E707
:100EC00046F08006E2E76B6A1E436E622846FFF733
:100ED000DBFEE4E7074AD36823F4E0631B041B0C42
:100EE000000200F4E060034343F0BF6343F40033C7
:100EF000D360704700ED00E000B5194BDB68C3F329
:100F00000223C3F1070CBCF1040F28BF4FF0040CFF
:100F100003F1040EBEF1060F18D9033B4FF0FF3E5C
:100F20000EFA0CFC21EA0C0199400EFA03F322EAB6
:100F30000303194300280BDB0901C9B200F160402B
:100F400000F5614080F800135DF804FB0023E5E73D
:100F500000F00F000901C9B2024B1954F4E700BFB9
:100F600000ED00E014ED00E0002807DB00F01F02B8
:100F7000400901239340024A42F82030704700BFE5
:100F800000E100E00138B0F1807F0BD24FF0E023A8
:100F90005861054AF02182F8231000209861072249
:100FA0001A6170470120704700ED00E058B110B59C
:100FB000044643791BB101236371002010BD037106
:100FC00001F0EAFCF7E701207047000000230F2B37
:100FD00000F2DA80F0B583B03AE0072200E00022A8
:100FE000AA4032430234694D45F82420684A146807
:100FF0006FEA0C0224EA0C054E6816F4803F01D01B
:101000004CEA0405624C2560646802EA04054E68F7
:1010100016F4003F01D04CEA04055D4C6560A468FD
:1010200002EA04054E6816F4801F01D04CEA04055C
:10103000574CA560E46822404D6815F4001F01D0AC
:101040004CEA0402524CE26001330F2B00F29A800A
:1010500001229A400C6804EA020C32EA0404F3D13B
:101060004C68651E012D03D9112C01D0122C12D110
:1010700085685E000324B44025EA0405CC68B440CA
:101080002C438460456825EA02054C68C4F30012CD
:101090009A402A434260C5684FEA430E032404FA8B
:1010A0000EF4E24325EA04058C6804FA0EF42C439E
:1010B000C4604C68022C01D0122C0FD1DD08083519
:1010C00050F8257003F00704A6000F24B44027EA67
:1010D00004070C69B4403C4340F8254004681440C0
:1010E0004A6802F0030202FA0EF2224302604A68E2
:1010F00012F0805FA8D000220192264A546C44F47A
:1011000080445464526C02F480420192019A9C081B
:10111000A51C1E4A52F8256003F0030295000F2219
:10112000AA4026EA02061C4A90423FF458AF02F554
:10113000806290421AD002F58062904218D002F587
:101140008062904216D002F58062904214D002F57F
:101150008062904212D002F58062904210D002F577
:10116000806290423FF439AF082239E7012237E725
:10117000022235E7032233E7042231E705222FE775
:1011800006222DE703B0F0BD704700BF00380140D4
:10119000003C014000380240000002400AB1816179
:1011A0007047090481617047436931EA030301D044
:1011B000816170470904816170470000002800F0D8
:1011C000DA8170B582B00446036813F0010F3BD09A
:1011D0009F4B9B6803F00C03042B2CD09C4B9B680B
:1011E00003F00C03082B21D06368B3F5803F4FD088
:1011F000B3F5A02F52D0964B1A6822F480321A60B1
:101200001A6822F480221A606368002B50D0FFF71E
:1012100003FB05468E4B1B6813F4003F14D1FFF708
:10122000FBFA401B6428F5D90320ABE1884B5B68CF
:1012300013F4800FD8D0864B1B6813F4003F03D003
:101240006368002B00F09981236813F0020F54D0DB
:101250007F4B9B6813F00C0F3ED07D4B9B6803F0D7
:101260000C03082B33D0E368002B68D0794B0122A4
:101270001A60FFF7D1FA0546754B1B6813F0020F91
:1012800054D1FFF7C9FA401B0228F5D9032079E1B0
:101290006F4A136843F480331360B5E76C4B1A68E8
:1012A00042F480221A601A6842F480321A60ABE776
:1012B000FFF7B2FA0546664B1B6813F4003FC3D034
:1012C000FFF7AAFA401B6428F5D903205AE1604BC6
:1012D0005B6813F4800FC6D15D4B1B6813F0020FDF
:1012E00003D0E368012B40F04A81594A136823F088
:1012F000F803216943EAC1031360236813F0080F60
:1013000042D063696BB3534B0122C3F8802EFFF7C1
:1013100083FA05464E4B5B6F13F0020F34D1FFF793
:101320007BFA401B0228F5D903202BE1484A1368B9
:1013300023F0F803216943EAC1031360DDE7454B5D
:1013400000221A60FFF768FA0546414B1B6813F04C
:10135000020FD2D0FFF760FA401B0228F5D9032014
:1013600010E13C4B0022C3F8802EFFF755FA0546EA
:10137000374B5B6F13F0020F06D0FFF74DFA401B9F
:101380000228F5D90320FDE0236813F0040F77D07D
:101390002F4B1B6C13F0805F33D1002301932C4B38
:1013A0001A6C42F080521A641B6C03F08053019354
:1013B000019B0125284B1B6813F4807F23D0A36871
:1013C000012B34D0052B38D0214B1A6F22F00102AB
:1013D0001A671A6F22F004021A67A368002B3DD027
:1013E000FFF71AFA06461A4B1B6F13F0020F46D18D
:1013F000FFF712FA801B41F288339842F3D9032099
:10140000C0E00025D6E7144A136843F480731360E4
:10141000FFF702FA0646104B1B6813F4807FCED10B
:10142000FFF7FAF9801B0228F5D90320AAE0084A41
:10143000136F43F001031367CFE7054B1A6F42F0B8
:1014400004021A671A6F42F001021A67C5E700BF6B
:10145000003802400000474200700040FFF7DCF90E
:1014600006464F4B1B6F13F0020F08D0FFF7D4F95D
:10147000801B41F288339842F3D9032082E0E5B91A
:10148000A369002B7DD0464A926802F00C02082A1C
:1014900051D0022B17D0434B00221A66FFF7BCF93C
:1014A00004463F4B1B6813F0007F42D0FFF7B4F9AE
:1014B000001B0228F5D9032064E0394A136C23F09D
:1014C00080531364DCE7374B00221A66FFF7A4F958
:1014D0000546334B1B6813F0007F06D0FFF79CF9DD
:1014E000401B0228F5D903204CE0E369226A13432C
:1014F000626A43EA8213A26A5208013A43EA02434B
:10150000E26A43EA0263264A5360264B01221A66C6
:10151000FFF782F90446224B1B6813F0007F06D1C7
:10152000FFF77AF9001B0228F5D903202AE00020F2
:1015300028E0002026E0012B26D0194B5B6803F43D
:101540008001E269914221D103F03F02216A8A427F
:101550001ED1616A47F6C0721A408A421AD103F45A
:101560004032A16A8A4217D103F07063E26A934263
:1015700014D1002006E001207047012002E0012084
:1015800000E0002002B070BD0120FBE70120F9E778
:101590000120F7E70120F5E70120F3E70120F1E75B
:1015A000003802400000474208B5254B9B6803F015
:1015B0000C03042B3FD0082B3FD1214B5A6802F07B
:1015C0003F025B6813F4800F12D01D4B5968C1F3C2
:1015D00088111C480023A1FB0001FEF7F9FD184B00
:1015E0005B68C3F3014301335B00B0FBF3F025E01C
:1015F000134B5968C1F3881C4FEA4C11B1EB0C0036
:101600006EEB0E0E4FEA8E1343EA90638101091AC6
:1016100063EB0E03DB0043EA5173C90011EB0C0CC2
:1016200043F10003990200234FEA8C2041EA9C51C8
:10163000FEF7CEFDD3E7034800E0034808BD00BF36
:1016400000380240001BB7000024F400002800F01E
:101650009B8070B50D4604464F4B1B6803F00F038B
:101660008B4208D2CBB24C4A1370136803F00F03BD
:101670008B4240F08B80236813F0020F17D013F0D9
:10168000040F04D0454A936843F4E0539360236801
:1016900013F0080F04D0414A936843F46043936009
:1016A0003E4A936823F0F003A1680B4393602368DC
:1016B00013F0010F32D06368012B21D09A1E012A4A
:1016C00025D9364A126812F0020F61D033498A6870
:1016D00022F0030213438B60FFF79EF806462F4B60
:1016E0009B6803F00C036268B3EB820F16D0FFF720
:1016F00093F8801B41F288339842F0D9032042E0EE
:10170000264A126812F4003FE0D101203BE0234A50
:10171000126812F0007FD9D1012034E01E4B1B6803
:1017200003F00F03AB4207D9EAB21B4B1A701B68D8
:1017300003F00F03AB422DD1236813F0040F06D042
:10174000164A936823F4E053E1680B4393602368DF
:1017500013F0080F07D0114A936823F460432169FE
:1017600043EAC1039360FFF71FFF0C4B9B68C3F371
:1017700003130B4AD35CD8400A4B18600A4B186815
:10178000FEF7FEFF002070BD012070470120FAE740
:101790000120F8E70120F6E7003C02400038024053
:1017A000183000080C00002004000020842801D01C
:1017B0000330704700207047EFF30580003818BFF2
:1017C0000120704708B500F02DFE002008BD08B5C7
:1017D000FFF7F2FF10B100F06DFE08BD00F064FEEF
:1017E000FBE72DE9F04387B004460F464569BDB1DC
:1017F0008669AEB1D0F80480D0F80090B0F9080046
:10180000FFF7D4FF0296019500903B4622694946B6
:10181000404600F001FD0590059807B0BDE8F08353
:1018200065682668D4F81080B4F90800FFF7BEFF99
:1018300005AB019300903B461FFA88F231462846DB
:1018400000F025FD0128E7D00020E6E708B500B943
:10185000012000F03FFF002008BD10B50446FFF74F
:10186000ABFF78B1204600F08BFD01280DD14FF081
:10187000E0234FF08052C3F8042DBFF34F8FBFF326
:101880006F8F02E0204600F037FD002010BD00F110
:10189000080343604FF0FF328260C360036100239E
:1018A0000360704700230361704743684B609A6888
:1018B0008A60516099600861036801330360704772
:1018C00030B40D68B5F1FF3F11D000F108031C469C
:1018D0005B681A68AA42FAD963684B6099608C60A9
:1018E0006160086103680133036030BC70470469BC
:1018F000F2E70369416882688A60416851605A680A
:10190000824206D0002202611A68013A1A60186801
:10191000704782685A60F5E782B0002301930D4B4F
:101920001B68B3F1FF3F08D04FF0500383F31188D9
:10193000BFF36F8FBFF34F8FFEE74FF0500383F37A
:101940001188BFF36F8FBFF34F8F019B002BFCD02B
:1019500002B070470800002008480068006880F363
:1019600008884FF0000080F3148862B661B6BFF3B8
:101970004F8FBFF36F8F00DF00BF000008ED00E066
:10198000DFF80C00016841F470010160704700004D
:1019900088ED00E04FF0807340F8043C21F0010135
:1019A00040F8081C054B40F80C3C40F8202C6FF028
:1019B000020340F8243C4438704700BF191900085E
:1019C000074B19680868B0E8F04F80F30988BFF347
:1019D0006F8F4FF0000080F311887047AFF30080E5
:1019E000985300204FF0500383F31188BFF36F8F9B
:1019F000BFF34F8F0B4A136801331360012B00D0E4
:101A000070474FF0E023D3F8043D13F0FF0FF7D0F9
:101A10004FF0500383F31188BFF36F8FBFF34F8FE5
:101A2000FEE700BF08000020094B1B6843B94FF0D8
:101A3000500383F31188BFF36F8FBFF34F8FFEE71F
:101A4000013B034A13600BB983F31188704700BF51
:101A5000080000200000000000000000000000005E
:101A6000EFF30980BFF36F8F154B1A681EF0100F4C
:101A700008BF20ED108A20E9F04F10602DE9090021
:101A80004FF0500080F31188BFF34F8FBFF36F8F7B
:101A900000F046FE4FF0000080F3118809BC196881
:101AA0000868B0E8F04F1EF0100F08BFB0EC108AC5
:101AB00080F30988BFF36F8F704700BFAFF30080DA
:101AC0009853002008B54FF0500383F31188BFF3FB
:101AD0006F8FBFF34F8F00F0F5FC28B14FF0E0237C
:101AE0004FF08052C3F8042D002383F3118808BD02
:101AF0004FF0E022002313619361054B1B680549F9
:101B0000A1FB03139B09013B53610723136170473A
:101B10000C000020D34D62104FF0E023D3F8002DCD
:101B20003D4B9A421CD04FF0E023D3F8002D3B4BA5
:101B30009A421ED030B583B0394B1A78D2B2019296
:101B4000FF221A701B78DBB28DF803309DF803304A
:101B500003F05003334A1370334B07221A601BE023
:101B60004FF0500383F31188BFF36F8FBFF34F8F94
:101B7000FEE74FF0500383F31188BFF36F8FBFF37D
:101B80004F8FFEE7284A1368013B13609DF803302E
:101B90005B00DBB28DF803309DF8033013F0800F4B
:101BA000F0D1214B1B68032B08D04FF0500383F377
:101BB0001188BFF36F8FBFF34F8FFEE71B021A4AE6
:101BC000136003F4E0631360019BDBB2144A1370EB
:101BD0004FF0E024D4F8203D43F47003C4F8203DD6
:101BE000D4F8203D43F07043C4F8203DFFF780FF58
:101BF00000250E4B1D60FFF7C3FED4F8343F43F0C1
:101C00004043C4F8343FFFF7A7FE00F089FDFFF71B
:101C100083FE284603B030BD71C20F4170C20F4130
:101C200000E400E0781700207C1700200800002066
:101C3000EFF305830F2B0FD9114A9B5CDBB2114ADE
:101C400012789A4208D94FF0500383F31188BFF3FA
:101C50006F8FBFF34F8FFEE74FF0E023D3F80C3DBB
:101C600003F4E063084A1268934208D94FF0500326
:101C700083F31188BFF36F8FBFF34F8FFEE7704779
:101C8000F0E300E0781700207C170020124A12F0E1
:101C9000070F1ED0D11D21F00701C1F57053134469
:101CA0000A460E480260002141601344083B23F0BD
:101CB00007030B48036059601960991A516013605B
:101CC000084B1960084B1960084B4FF000421A602E
:101CD00070474FF47053E4E78417002090530020BE
:101CE000801700208C53002088530020845300204C
:101CF000164B1A461B688342FBD3516802EB010C5A
:101D0000844509D0416800EB010C634509D00360AC
:101D1000904219D0106070474068014451601046ED
:101D2000F0E710B40A4C2468A3420BD05B68194456
:101D3000416013681B680360904200D010605DF83A
:101D4000044B70470460F7E7704700BF90530020D2
:101D50008017002070B5054600F09EFB344B1B68D1
:101D6000A3B1344B1B681D424AD135B1083515F07B
:101D7000070F02D025F007050835002D42D02E4B65
:101D80001B68AB424DD32D4A146804E0FFF77EFF79
:101D9000E7E722461C466368AB4202D22368002B69
:101DA000F7D1234B1B68A3423DD016680836236841
:101DB000136063685B1B102B10D9601910F0070FBC
:101DC00008D04FF0500383F31188BFF36F8FBFF338
:101DD0004F8FFEE743606560FFF78AFF6268164930
:101DE0000B689B1A0B60164909688B4201D2144993
:101DF0000B60104B1B68134363600023236002E0F9
:101E0000002600E0002600F0E9FB16F0070F0CD0DA
:101E10004FF0500383F31188BFF36F8FBFF34F8FE1
:101E2000FEE70026EFE70026EDE7304670BD00BF75
:101E300080170020845300208853002090530020F6
:101E40008C53002080B338B50446A0F1080550F843
:101E5000043C164A1268134208D14FF0500383F332
:101E60001188BFF36F8FBFF34F8FFEE750F8081C48
:101E700041B14FF0500383F31188BFF36F8FBFF36D
:101E80004F8FFEE723EA020340F8043C00F004FB16
:101E900054F8041C064A13680B4413602846FFF7E5
:101EA00027FF00F09BFB38BD704700BF8453002024
:101EB0008853002028B141690C4A91420AD0002081
:101EC00070474FF0500383F31188BFF36F8FBFF358
:101ED0004F8FFEE7836A064A934202D01BB100206F
:101EE0007047002070470120704700BF94540020C5
:101EF0007C540020084B1B681B6823B9074B4FF02C
:101F0000FF321A607047044B1B68DB68DB685A6855
:101F1000024B1A60704700BF9C530020745400208D
:101F20002DE9F04707469846089DDDF824900A9C65
:101F3000266B02F18042013A06EB820626F0070684
:101F400000293AD08E464FF0000CBCF10F0F0BD891
:101F50001EF80C2004EB0C0383F834201EF80C3020
:101F600013B10CF1010CF0E7002384F84330062D87
:101F700000D90625E56265644FF0000AC4F848A060
:101F8000201DFFF78FFC04F11800FFF78BFC246184
:101F9000C5F10705A5616462C4F84CA084F850A09F
:101FA000424639463046FFF7F5FC2060B9F1000F94
:101FB00001D0C9F80040BDE8F087002384F8343030
:101FC000D5E7000038B5002407E004EB8402930055
:101FD0000E481844FFF75BFC0134062CF5D90C4D74
:101FE0002846FFF754FC0B4C2046FFF750FC0A48EC
:101FF000FFF74DFC0948FFF74AFC0948FFF747FC8B
:10200000084B1D60084B1C6038BD00BFA453002066
:10201000485400205C5400207C540020A854002028
:10202000945400209C530020A053002010B5044677
:10203000FFF7D8FC214A136801331360204B1B685B
:102040005BB1204B1B686BB91D4B1B68DA6AE36AF6
:102050009A4207D81A4B1C6004E0194B1C601368A5
:10206000012B28D0184A136801331360E06A01235A
:102070008340164A11680B43136000EB8000211D5A
:10208000134B03EB8000FFF710FCFFF7CDFC0D4B6B
:102090001B687BB10A4B1B68DA6AE36A9A4209D271
:1020A0004FF0E0234FF08052C3F8042DBFF34F8F61
:1020B000BFF36F8F10BDFFF785FFD3E730540020CB
:1020C0009853002090540020405400204454002095
:1020D000A453002010B5044690F8513063B1012B91
:1020E00011D0022B0ED04FF0500383F31188BFF3B1
:1020F0006F8FBFF34F8FFEE7006BFFF7A3FE204605
:10210000FFF7A0FE10BDFFF79DFEFBE70F4B1B681E
:10211000D3B110B5FFF766FC0D4BDB68DC68201D02
:10212000FFF7E7FB0B4A1368013B1360074A13688C
:10213000013B1360FFF778FC2046FFF7CBFF034B12
:102140001B68002BE6D110BD704700BF345400203F
:10215000A85400203054002008B5FFF7D7FF074BE4
:102160001B68012BF9D94FF0E0234FF08052C3F8E0
:10217000042DBFF34F8FBFF36F8FEEE7A453002002
:1021800070B504460D461D4B1E681D4B1868043083
:10219000FFF7AFFB50B91A4B1B68DA6A012303FA49
:1021A00002F218490B6823EA02030B60B4F1FF3F07
:1021B0000DD03444124B1B685C60A64210D9124B00
:1021C00018680F4B19680431FFF77AFB70BD002DBA
:1021D000EFD00B4B196804310C48FFF766FBF5E7AD
:1021E0000B4B1868064B19680431FFF769FB094B64
:1021F0001B68A342EAD9074B1C60E7E7BC540020E8
:102200009853002044540020A053002094540020F0
:102210009C5300207454002030B587B00B9C7CB1D7
:102220000C9DB5B154250495049D542D1AD04FF042
:10223000500383F31188BFF36F8FBFF34F8FFEE717
:102240004FF0500383F31188BFF36F8FBFF34F8FAD
:10225000FEE74FF0500383F31188BFF36F8FBFF396
:102260004F8FFEE7049D0C9D2C63022485F851409E
:1022700000240394029505AC01940A9C0094FFF796
:102280004FFE0C98FFF7D2FE059807B030BD2DE940
:10229000F04385B00746884614461E469000FFF777
:1022A00059FD00B381465420FFF754FD0546B0B1F7
:1022B000C0F83090E5B1002385F8513003930295C2
:1022C0000D9B01930C9B00933346224641463846B2
:1022D000FFF726FE2846FFF7A9FE012005E0484645
:1022E000FFF7B0FDE6E74FF0FF3005B0BDE8F08343
:1022F0004FF0FF30F9E7000038B568B104461D4BD8
:102300001B68834207D0FFF76DFB2046FFF7D2FD25
:1023100058B9FFF789FB38BD4FF0500383F311889C
:10232000BFF36F8FBFF34F8FFEE7251D2846FFF7E2
:10233000E0FAE06A012383400F4A11680B431360FF
:1023400000EB800029460D4B03EB8000FFF7ADFA50
:10235000E26A084B1B68DB6A9A42DAD34FF0E0234B
:102360004FF08052C3F8042DBFF34F8FBFF36F8F30
:10237000CFE700BF9853002044540020A45300200E
:10238000F8B590B30446FFF753FCEFF311864FF016
:10239000500383F31188BFF36F8FBFF34F8F204635
:1023A000FFF788FD0546E0B1194B1B6843BBE26AA5
:1023B000184B1B68DB6A9A4220D20025271D38463D
:1023C000FFF797FAE06A01238340134A11680B4331
:1023D000136000EB80003946104B03EB8000FFF7E1
:1023E00064FA86F311882846F8BD4FF0500383F352
:1023F0001188BFF36F8FBFF34F8FFEE70125DDE735
:1024000004F118010648FFF750FA0025E9E700BF7C
:102410003C5400209853002044540020A453002032
:102420007C54002010B588B000240594069407AAB7
:1024300006A905A800F0CEFA059B0293069B01931E
:1024400000942346079A0E490E48FFF7E5FE0E4B0F
:10245000186090B14FF0500383F31188BFF36F8F72
:10246000BFF34F8F094B4FF0FF321A60084B012228
:102470001A60084B1C60FFF74FFB08B010BD00BF8F
:10248000F02F0008592100087054002074540020D7
:1024900090540020BC540020024A1368013313609A
:1024A000704700BF3C540020014B1868704700BFC4
:1024B000BC54002008B5FFF7BBFB014B186808BDF2
:1024C000BC540020F8B53A4B1B68002B64D1394B43
:1024D0001D6801351D60C5B9374B1B681B6843B1CA
:1024E0004FF0500383F31188BFF36F8FBFF34F8F0B
:1024F000FEE7314A1168314B186810601960304AA4
:10250000136801331360FFF7F5FC2E4B1B68AB42D9
:1025100038D900272C4B1B68DB6A03EB83039A0036
:102520002A4B9B58012B3CD901273AE00127224B2B
:102530001B681B6843B3204B1B68DB68DC6863685F
:102540009D4226D3261D3046FFF7D3F9A36A1BB15F
:1025500004F11800FFF7CDF9E36A01229A401C4903
:10256000086802430A6003EB83039A003146174868
:102570001044FFF79AF9E26A134B1B68DB6A9A4230
:10258000D4D2D4E70027D2E70E4B4FF0FF321A60C7
:10259000C0E70C4A1360BDE70E4A136801331360AD
:1025A00000270D4B1B6803B101273846F8BD00BF5B
:1025B0003C540020BC5400209C530020A053002019
:1025C000785400207454002098530020A453002015
:1025D0004454002038540020C054002038B5354BF6
:1025E0001B6843B94FF0500383F31188BFF36F8F1B
:1025F000BFF34F8FFEE7FFF7F5F92E4B1A68013A4C
:102600001A601B68002B4FD12B4B1B680BB90024A1
:102610004BE00024294B1B681BB3284BDB68DC68AC
:1026200004F11800FFF765F9251D2846FFF761F949
:10263000E06A01238340224A11680B43136000EBD8
:10264000800029461F4B03EB8000FFF72EF9E26A5A
:102650001D4B1B68DB6A9A42DCD31C4B01221A60BB
:10266000D8E70CB1FFF746FC194B1C6884B9174B2F
:102670001C68D4B14FF0E0234FF08052C3F8042D12
:10268000BFF34F8FBFF36F8F01240EE0013C07D0E3
:10269000FFF718FF0028F9D00C4B01221A60F5E76C
:1026A0000B4B00221A60E2E70024FFF7BDF9204639
:1026B00038BD00BF3C540020305400207C54002022
:1026C00044540020A453002098530020C0540020FC
:1026D0003854002010B5A8B10446104B1B6843B114
:1026E0004FF0500383F31188BFF36F8FBFF34F8F09
:1026F000FEE7FFF7D1FE00212046FFF741FDFFF77F
:102700006DFF48B94FF0E0234FF08052C3F8042D1D
:10271000BFF34F8FBFF36F8F10BD00BF3C5400203D
:10272000204B1B681BB1204B01221A6070471E4BC7
:1027300000221A601D4B1B68B3FA83F3DBB2C3F1AE
:102740001F0303EB83018A0019498A5842B94FF0ED
:10275000500383F31188BFF36F8FBFF34F8FFEE7F2
:10276000134903EB830082000A44506840685060BC
:1027700003EB830C4FEA8C0208321144884209D0E3
:1027800003EB83039A000A4B13445B68DA68094B36
:102790001A607047406862469100054A0A445060DA
:1027A000EEE700BF3C540020C054002044540020F9
:1027B000A453002098530020054B1B6833B1054BF0
:1027C0001B680BB100207047022070470120704742
:1027D000905400203C54002008B50D480D4B036078
:1027E0000323436000238360C3604FF4102202611F
:1027F0004FF400124261037643768376C376037703
:102800004377FEF70FF800B908BD00F07BF9FBE74E
:10281000C85400200064004008B50D480D4B03600B
:102820000323436000238360C3604FF410220261DE
:102830004FF400124261037643768376C3760377C2
:102840004377FDF7EFFF00B908BD00F05BF9FBE748
:10285000F05400200068004010B58AB000230593B2
:10286000069307930893099303683D4A934204D063
:102870003C4A934234D00AB010BD3B4A136801333E
:102880001360012B1FD000240194384B1A6B42F0C7
:1028900008021A631B6B03F008030193019B0323D7
:1028A00005930222069208930923099305A930484B
:1028B000FEF78CFB224605211420FEF71DFB142099
:1028C000FEF752FBD7E700230093284B1A6C42F027
:1028D00000721A641B6C03F000730093009BD2E734
:1028E00000230293214B1A6C42F080621A641B6C25
:1028F00003F080630293029B1B4A13680133136049
:10290000012B20D000240494184B1A6B42F00202D1
:102910001A631B6B03F002030493049B602305936B
:1029200002230693032308930923099305A9114859
:10293000FEF74CFB224605214020FEF7DDFA402041
:10294000FEF712FB97E700230393084B1A6C42F043
:1029500000721A641B6C03F000730393039BD1E7AE
:102960000064004000680040C45400200038024069
:10297000000C02400004024008B50548054B036006
:10298000FEF714FB00B908BD00F0BCF8FBE700BF80
:1029900018550020003002400268094B9A4200D0CE
:1029A000704782B000230193064B1A6B42F48052A9
:1029B0001A631B6B03F480530193019B02B07047B1
:1029C000003002400038024008B50120FEF73EFF0B
:1029D000FBE70000034B0360034B0B608023136095
:1029E000704700BF2C5700202C55002010B596B022
:1029F0001B4C0DF13C0CA646BEE80F00ACE80F00E6
:102A00009EE807008CE8070000210FA8FEF7E9FE0A
:102A1000144B18600DF1200C04F11C0EBEE80F00E1
:102A2000ACE80F009EE807008CE80700002108A82A
:102A3000FEF7D7FE0C4B18600DF1040E04F1380CB4
:102A4000BCE80F00AEE80F009CE807008EE8070026
:102A5000002101A8FEF7C5FE044B186016B010BD9A
:102A60009C2F0008285500202055002024550020C8
:102A700030B58BB00024059406940794089409940B
:102A800001941E4B1A6B42F002021A631A6B02F099
:102A900002020192019A02941A6B42F001021A6337
:102AA0001A6B02F001020292029A03941A6B42F02E
:102AB00008021A631A6B02F008020392039A049444
:102AC0001A6B42F080021A631B6B03F080030493BD
:102AD000049B0B4D22464FF4E0512846FEF75EFB67
:102AE0004FF4E0530593012306930794089405A936
:102AF0002846FEF76BFA0BB030BD00BF003802402D
:102B0000001C024072B6FEE700B595B030220021ED
:102B100008A800F075F90023039304930593069326
:102B200007930193204A116C41F080511164126C9B
:102B300002F080520192019A02931C4B1A6842F4EF
:102B400080421A601B6803F480430293029B0123B6
:102B500008934FF48033099302230E934FF48002BD
:102B60000F9206221092A822119212930823139317
:102B700008A8FEF723FB98B90F23039302230493BD
:102B8000002305934FF4A05306934FF4805307930B
:102B9000052103A8FEF75AFD20B915B05DF804FB26
:102BA000FFF7B0FFFFF7AEFF0038024000700040B3
:102BB00008B5FDF70BFEFFF7A7FFFFF759FFFFF77B
:102BC0000BFEFFF729FEFFF7D7FEFDF757FDFFF7D6
:102BD0000DFFFEF7F7FDFEE700B583B0002200927F
:102BE0000D4B596C41F480415964596C01F480419A
:102BF000009100990192196C41F0805119641B6C8D
:102C000003F080530193019B0F216FF00100FEF749
:102C100073F903B05DF804FB00380240FEE7FEE7FD
:102C2000FEE7FEE7FEE7704708B5FDF7E9FDFFF7B1
:102C3000C3FD012800D108BDFEF744FFFBE70000FB
:102C400008B50248FEF721F808BD00BFC8540020AF
:102C500008B50248FEF719F808BD00BFF05400207F
:102C6000054BD3F8882042F47002C3F888204FF057
:102C700000629A60704700BF00ED00E070B5044646
:102C8000164611EE103A836410EE903A436410EE4B
:102C9000103A03640025056011EE903A436012EE8D
:102CA000103A836012EE903AC360056313EE103A57
:102CB000036513EE903A436514EE103A836514EE03
:102CC000903AC365A0F86010623000F01EF884F8F6
:102CD0008C5084F88D5084F88E5084F88F5084F88E
:102CE000986084F8995084F89A5084F89B5084F83E
:102CF0009C5084F89D5084F89E5084F89F5084F82E
:102D0000A05084F8A150656370BD70B50446018081
:102D100000258570C570057145718E003046FFF73E
:102D200019F8C4F806003046FFF714F8C4F80A0092
:102D30000023C4F80E30C4F8123032462946D4F8C5
:102D4000060000F05DF832462946D4F80A0000F08B
:102D500057F8C4F81A50C4F81E50C4F82250C4F8EA
:102D6000265070BDDFF834D0002103E00C4B5B58D7
:102D7000435004310B480C4B42189A42F6D30B4A8D
:102D800002E0002342F8043B094B9A42F9D3FFF7D3
:102D900067FF00F011F8FFF70BFF704700000220FB
:102DA00040300008000000203C0400203C040020CB
:102DB00084570020FEE7000070B50D4E0D4D761BC8
:102DC000B61006D0002455F8043B01349847A642BB
:102DD000F9D1094E094D761B00F0D4F8B61006D093
:102DE000002455F8043B01349847A642F9D170BD40
:102DF00034300008343000083C300008343000081B
:102E0000830730B548D0541E002A3FD0CAB20346CB
:102E100001E0013C3AD303F8012B9D07F9D1032CC3
:102E20002DD9CDB245EA05250F2C45EA054536D901
:102E3000A4F1100222F00F0C03F1200EE6444FEA39
:102E4000121C03F1100242E9045542E90255103206
:102E50007245F8D10CF1010214F00C0F03EB0212D1
:102E600004F00F0C13D0ACF1040323F0030304337C
:102E7000134442F8045B9342FBD10CF003042CB1E1
:102E8000CAB21C4403F8012B9C42FBD130BD6446FE
:102E90001346002CF4D1F9E703461446BFE71A465F
:102EA000A446E0E7024B13B1024800F005B87047B2
:102EB00000000000C52E0008002301461A461846EF
:102EC00000F01AB838B5084B084D5B1B9C1007D0B2
:102ED000043B1D44013C55F804399847002CF9D1B6
:102EE000BDE8384000F054B8403000083C300008DD
:102EF000704700BF704700BF2DE9F047DFF880A0A2
:102F00000646DAF8000098460F469146FFF7F0FFB4
:102F10001A4B1B68D3F8484124B365681F2D26DC83
:102F20005EB96B1C0235DAF80000636044F8257066
:102F3000FFF7E0FF0020BDE8F08704EB85010123E7
:102F4000C1F88890D4F88821AB401A43022EC4F807
:102F50008821C1F80881E4D1D4F88C211343C4F846
:102F60008C31DEE703F5A674C3F84841D5E7DAF8FB
:102F70000000FFF7BFFF4FF0FF30DCE7283000080C
:102F800038040020F8B500BFF8BC08BC9E46704766
:0C2F9000F8B500BFF8BC08BC9E467047B6
:102F9C00F82F000861060008000000000000000087
:102FAC0000010000000000000000000008300008D4
:102FBC0049060008FDFF00000000000000010000B1
:102FCC00000000000000000010300008C9290008B3
:102FDC00FDFF000000000000800000000000000069
:102FEC000000000049444C45000000005472616E22
:102FFC00736D697373696F6E0000000043686173D1
:10300C00736973004465746563740000000000000C
:10301C00000000000102030406070809100000204C
:08302C00D4D1FF7F0100000078
:08303400A52E0008B5010008FB
:04303C0091010008F6
:103040000100000010000000AAAAAAAA0024F400AF
:1030500000000000FC02002064030020CC030020DC
:103060000000000000000000000000000000000060
:103070000000000000000000000000000000000050
:103080000000000000000000000000000000000040
:103090000000000000000000000000000000000030
:1030A0000000000000000000000000000000000020
:1030B0000000000000000000000000000000000010
:1030C0000000000000000000000000000000000000
:1030D00000000000000000000000000000000000F0
:1030E00000000000000000000000000000000000E0
:1030F00000000000000000000100000000000000CF
:103100000E33CDAB34126DE6ECDE05000B00000093
:1031100000000000000000000000000000000000AF
:10312000000000000000000000000000000000009F
:10313000000000000000000000000000000000008F
:10314000000000000000000000000000000000007F
:0C34700000000000000000008057002059
:0400000508002D655D
:00000001FF
